:020000040800F2
:1000000000500020A90C0008F10C0008F10C0008B9
:10001000F10C0008F10C0008F10C000800000000D1
:10002000000000000000000000000000F10C0008CB
:10003000F10C000800000000F10C00089506000813
:10004000F10C0008F10C0008F10C0008F10C00089C
:10005000F10C0008F10C0008150B0008F10C000869
:10006000F10C0008F10C0008F10C0008A10B0008CD
:10007000F10C0008F10C0008F10C0008F10C00086C
:10008000F10C0008F10C0008810B0008F10C0008CD
:10009000F10C0008F10C0008F10C0008F10C00084C
:1000A000F10C0008590B0008F10C0008F10C0008D5
:1000B000F10C000801070008310B0008F10C0008E2
:1000C000F10C0008F10C0008F10C0008F10C00081C
:1000D000F10C0008E50B0008410C0008F10C0008C9
:1000E000F10C0008F10C0008F10C00080000000001
:1000F0000000000000000000000000000000000000
:0C01000000000000000000005FF808F1A3
:10010C0010B5054C237833B9044B13B10448AFF345
:10011C0000800123237010BD0000002000000000AF
:10012C003C0D000808B5034B1BB103490348AFF362
:10013C00008008BD00000000040000203C0D0008F9
:10014C0080F0004002E000BF81F0004142001FBF80
:10015C005FEA410392EA030F7FEA226C7FEA236C89
:10016C006AD04FEA1262D2EB1363C1BFD21841407E
:10017C0048404140B8BF5B42192B88BF704710F014
:10018C00004F40F4000020F07F4018BF404211F0B7
:10019C00004F41F4000121F07F4118BF494292EA1F
:1001AC00030F3FD0A2F1010241FA03FC10EB0C004B
:1001BC00C3F1200301FA03F100F0004302D54942D8
:1001CC0060EB4000B0F5000F13D3B0F1807F06D385
:1001DC0040084FEA310102F10102FE2A51D2B1F17D
:1001EC00004F40EBC25008BF20F0010040EA030072
:1001FC007047490040EB0000013A28BFB0F5000FF2
:10020C00EDD2B0FA80FCACF1080CB2EB0C0200FAA7
:10021C000CF0AABF00EBC25052421843BCBFD040F6
:10022C001843704792F0000F81F4000106BF80F470
:10023C0000000132013BB5E74FEA41037FEA226C33
:10024C0018BF7FEA236C21D092EA030F04D092F0FE
:10025C00000F08BF0846704790EA010F1CBF002032
:10026C00704712F07F4F04D1400028BF40F000408F
:10027C00704712F100723CBF00F50000704700F0AF
:10028C00004343F0FE4040F4000070477FEA2262D6
:10029C0016BF08467FEA23630146420206BF5FEAA7
:1002AC00412390EA010F40F4800070474FF00003A7
:1002BC0004E000BF10F0004348BF40425FEA000C6E
:1002CC0008BF704743F0964301464FF000001CE016
:1002DC0050EA010208BF70474FF000030AE000BF6C
:1002EC0050EA010208BF704711F0004302D54042AA
:1002FC0061EB41015FEA010C02BF8446014600201C
:10030C0043F0B64308BFA3F18053A3F50003BCFA36
:10031C008CF2083AA3EBC25310DB01FA02FC6344E3
:10032C0000FA02FCC2F12002BCF1004F20FA02F2EA
:10033C0043EB020008BF20F00100704702F12002DD
:10034C0001FA02FCC2F1200250EA4C0021FA02F23E
:10035C0043EB020008BF20EADC7070474FF0FF0C43
:10036C001CEAD0521EBF1CEAD15392EA0C0F93EA3E
:10037C000C0F6FD01A4480EA010C400218BF5FEAE0
:10038C0041211ED04FF0006343EA501043EA511153
:10039C00A0FB01310CF00040B1F5000F3EBF49004D
:1003AC0041EAD3715B0040EA010062F17F02FD2A51
:1003BC001DD8B3F1004F40EBC25008BF20F0010034
:1003CC00704790F0000F0CF0004C08BF49024CEA4B
:1003DC00502040EA51207F3AC2BFD2F1FF0340EADD
:1003EC00C250704740F400004FF00003013A5DDC4E
:1003FC0012F1190FDCBF00F000407047C2F100028F
:10040C00410021FA02F1C2F1200200FA02FC5FEA7B
:10041C00310040F1000053EA4C0308BF20EADC70C5
:10042C00704792F0000F00F0004C02BF400010F437
:10043C00000F013AF9D040EA0C0093F0000F01F0E4
:10044C00004C02BF490011F4000F013BF9D041EA06
:10045C000C018FE70CEAD15392EA0C0F18BF93EA08
:10046C000C0F0AD030F0004C18BF31F0004CD8D132
:10047C0080EA010000F00040704790F0000F17BFB9
:10048C0090F0004F084691F0000F91F0004F14D0FF
:10049C0092EA0C0F01D142020FD193EA0C0F03D157
:1004AC004B0218BF084608D180EA010000F000405A
:1004BC0040F0FE4040F40000704740F0FE4040F435
:1004CC00400070474FF0FF0C1CEAD0521EBF1CEAD4
:1004DC00D15392EA0C0F93EA0C0F69D0A2EB0302F2
:1004EC0080EA010C49024FEA402037D04FF080538C
:1004FC0043EA111143EA10130CF000408B4238BF51
:10050C005B0042F17D024FF4000C8B4224BF5B1A5E
:10051C0040EA0C00B3EB510F24BFA3EB510340EAAC
:10052C005C00B3EB910F24BFA3EB910340EA9C005A
:10053C00B3EBD10F24BFA3EBD10340EADC001B01CA
:10054C0018BF5FEA1C1CE0D1FD2A3FF650AF8B426E
:10055C0040EBC25008BF20F0010070470CF0004C7B
:10056C004CEA50207F32C2BFD2F1FF0340EAC250A6
:10057C00704740F400004FF00003013A37E792F067
:10058C00000F00F0004C02BF400010F4000F013AC5
:10059C00F9D040EA0C0093F0000F01F0004C02BFC0
:1005AC00490011F4000F013BF9D041EA0C0195E729
:1005BC000CEAD15392EA0C0F08D142027FF47DAFC2
:1005CC0093EA0C0F7FF470AF084676E793EA0C0FB2
:1005DC0004D14B023FF44CAF08466EE730F0004CB0
:1005EC0018BF31F0004CCAD130F000427FF45CAF40
:1005FC0031F000437FF43CAF5FE700BF80B483B0C1
:10060C0000AF0346FB7197F90730002B0BDBFB792E
:10061C0003F01F02064997F907305B09012000FA25
:10062C0002F241F8232000BF0C37BD4680BC704756
:10063C0000E100E080B483B000AF03463960FB7189
:10064C0097F90730002B0ADB3B68DAB20C4997F9B3
:10065C0007301201D2B20B4483F800230AE03B6846
:10066C00DAB20849FB7903F00F03043B1201D2B252
:10067C000B441A7600BF0C37BD4680BC704700BFD8
:10068C0000E100E000ED00E080B400AF154B1B680A
:10069C000133144A1360144B1B68002B04D0124B0B
:1006AC001B68013B104A1360104B1B68002B04D0D5
:1006BC000E4B1B68013B0D4A13600D4B9B69002BC5
:1006CC0005D00B4B9B69013B094A936106E0084B33
:1006DC004FF000025A61064B00221A6000BFBD4663
:1006EC0080BC7047380000203C00002040000020F7
:1006FC001C00002080B582B000AF2F4B1B6903F0AB
:10070C000103002B0AD02C4B1B692B4A23F001034D
:10071C0013612A4B1B680133284A1360264B1B6953
:10072C0003F00203002B42D0244B4FF47A729A61EF
:10073C00214B1B69204A23F0020313611F4B1B7BC7
:10074C00DBB2002B0AD11C4B5B6B1C4A53601B4B5E
:10075C0000221A60194B01221A7328E0164B5B6BAE
:10076C00164A9360154B1B68134AD26A03FB02F2BC
:10077C00124B9B6813447B60104B5B687A68D31AEE
:10078C000E4A13610D4B1B69002B0DD00B4B1B69D3
:10079C001846FFF78BFD034619460948FFF792FEF2
:1007AC0003461A46054B5A61044B00221A7300BFCC
:1007BC000837BD4680BD00BF000400401C0000206F
:1007CC002657894C80B500AF4B4BDB694A4A43F046
:1007DC000203D361484B9B69474A43F0040393617E
:1007EC00464B1B6823F04063444A43F0806313601C
:1007FC00424B1B68414A23F040731360404B00226C
:10080C001A603F4B00225A603D4B1B683C4A23F058
:10081C00010313603A4B1B68394A23F0020313603F
:10082C00374B1B68364A23F004031360344B1B68A8
:10083C00334A23F008031360314B1B68304A23F012
:10084C00100313602E4B1B682D4A23F060031360BA
:10085C002B4B1B682A4A23F080031360284B1B6820
:10086C00274A23F440731360254B00229A62244BD1
:10087C004FF6FF72DA62224B00229A61204B9B6981
:10088C0023F003031E4A43F0010393611C4B9B6945
:10089C0023F00C031A4A43F004039361184B9B6931
:1008AC00174A23F0F0039361154B1B6A144A43F06B
:1008BC0001031362124B1B6A114A43F002031362C9
:1008CC000F4BDB680E4A43F00203D3600C4BDB6822
:1008DC000B4A43F00103D3601D20FFF78FFE00216C
:1008EC001D20FFF7A7FE064B1B68054A43F00103CA
:1008FC00136000BF80BD00BF001002400008014023
:10090C000004004080B500AF00F008F800F034F8A7
:10091C0000F0C8F8FFF756FFFEE7000080B400AF08
:10092C00124B9B69114A43F0040393610F4B9B6973
:10093C000E4A43F0010393610D4B5B6823F0E063B7
:10094C000B4A43F0007353600A4B4FF4B0329A6178
:10095C00084B4FF4C0429A61064B4FF4B0329A6187
:10096C00044B9B6900BFBD4680BC70470010024021
:10097C00000001400008014080B400AF474B1B68E9
:10098C00464A43F00103136000BF444B1B6803F05D
:10099C000203002BF9D0414B1B68404A23F48023FF
:1009AC0013603E4B1B683D4A43F48033136000BF19
:1009BC003A4B1B6803F40033002BF9D0374B1B6800
:1009CC00364A43F400231360344B5B6823F0030373
:1009DC00324A43F001035360304B5B682F4A23F0DB
:1009EC00F00353602E4B1B6823F007032C4A43F093
:1009FC00020313602A4B1B68294A43F0100313604F
:100A0C00264B5B6823F4E063244A43F48063536011
:100A1C00224B5B68214A23F4605353601F4B5B6885
:100A2C0023F440431D4A43F4004353601B4B5B6863
:100A3C001A4A43F480335360184B184A5B6853606E
:100A4C00164B5B6823F47013144A43F4E0135360A1
:100A5C00124B5B68114A23F4800353600F4B5B68A5
:100A6C000E4A23F0E06353600C4B1B680B4A43F0B7
:100A7C0080731360094B5B6823F00303074A43F050
:100A8C000203536000BF054B1B6803F00073002B7F
:100A9C00F9D000BF00BFBD4680BC704700100240BB
:100AAC000020024080B400AF154B1B68144A23F0A1
:100ABC0001031360124B1B68114A43F002031360CD
:100ACC000F4B1B680E4A43F0040313600C4B5B681E
:100ADC0003F07F420A490B4B13434B60084B9B6856
:100AEC0003F07F420649074B13438B60044B1B6892
:100AFC00034A43F00103136000BFBD4680BC70473E
:100B0C0010E000E03F19010080B400AF044B5B69BA
:100B1C00034A43F00103536100BFBD4680BC7047DC
:100B2C000004014080B400AF074B1B6903F00103C4
:100B3C00002B05D0044B1B69034A23F001031361FE
:100B4C0000BFBD4680BC70470008004080B400AFB9
:100B5C00074B1B6903F00103002B05D0044B1B69E9
:100B6C00034A23F00103136100BFBD4680BC7047EC
:100B7C00002C014080B400AF054B1B6803F002034E
:100B8C00002B01D0024BDB6C00BFBD4680BC704714
:100B9C000024014080B400AF0E4B1B6803F002032D
:100BAC00002B06D00B4B5B680A4A43F001035360E1
:100BBC000BE0084B1B6803F00803002B05D0054B1A
:100BCC005B68044A43F00103536000BFBD4680BC20
:100BDC00704700BF0000024080B400AF134B1B688D
:100BEC0003F02003002B0ED0104B5A68104B1B8DBA
:100BFC001946D2B20E4B0B441A750D4B1B8D01339B
:100C0C009AB20B4B1A85094B1B6803F01003002B8F
:100C1C0008D0064B5B68064B1A8D054B5A85044B66
:100C2C0000221A8500BFBD4680BC704700380140C9
:100C3C004400002080B400AF134B1B6803F020036A
:100C4C00002B0ED0104B5A68104B1B8D1946D2B28C
:100C5C000E4B0B441A750D4B1B8D01339AB20B4B7B
:100C6C001A85094B1B6803F01003002B08D0064BA8
:100C7C005B68064B1A8D054B5A85044B00221A856E
:100C8C0000BFBD4680BC704700440040700000208F
:100C9C0080B400AF00BFBD4680BC70470C480D4906
:100CAC000D4A002302E0D458C4500433C4188C42BB
:100CBC00F9D30A4A0A4C002301E013600432A24221
:100CCC00FBD3FFF7E5FF00F00FF8FFF71BFE7047B3
:100CDC0000000020000000205C0D00080000002037
:100CEC009C000020FEE7000070B500260C4D0D4C5A
:100CFC00641BA410A64209D100F01AF800260A4D74
:100D0C000A4C641BA410A64205D170BD55F8043BD7
:100D1C0098470136EEE755F8043B98470136F2E761
:100D2C00540D0008540D0008540D0008580D00080F
:100D3C00F8B500BFF8BC08BC9E467047F8B500BFBC
:080D4C00F8BC08BC9E4670478C
:040D54003101000861
:040D58000D01000881
:0400000508000CA93A
:00000001FF
