:020000040800F2
:1000000000400220191100086D0300087703000862
:1000100000000000000000000000000000000000E0
:100020000000000000000000000000007D03000848
:100030000000000000000000870300089103000892
:1000400069110008691100086911000869110008A8
:100050006911000869110008691100086911000898
:100060006911000869110008691100086911000888
:100070006911000869110008691100086911000878
:100080006911000869110008691100086911000868
:100090006911000869110008691100086911000858
:1000A0006911000869110008691100086911000848
:0C00B000691100086911000869110008BE
:1000BC0010B5064C2378002B07D1054B002B02D032
:1000CC00044800E000BF0123237010BD0C00002089
:1000DC0000000000C4110008044B10B5002B03D025
:1000EC000349044800E000BF10BDC04600000000FA
:1000FC0010000020C4110008002243088B4274D366
:10010C0003098B425FD3030A8B4244D3030B8B420C
:10011C0028D3030C8B420DD3FF22090212BA030C15
:10012C008B4202D31212090265D0030B8B4219D3F6
:10013C0000E0090AC30B8B4201D3CB03C01A524116
:10014C00830B8B4201D38B03C01A5241430B8B425E
:10015C0001D34B03C01A5241030B8B4201D30B0347
:10016C00C01A5241C30A8B4201D3CB02C01A52416E
:10017C00830A8B4201D38B02C01A5241430A8B4231
:10018C0001D34B02C01A5241030A8B4201D30B021A
:10019C00C01A5241CDD2C3098B4201D3CB01C01A34
:1001AC00524183098B4201D38B01C01A524143093E
:1001BC008B4201D34B01C01A524103098B4201D32C
:1001CC000B01C01A5241C3088B4201D3CB00C01A99
:1001DC00524183088B4201D38B00C01A5241430811
:1001EC008B4201D34B00C01A5241411A00D2014636
:1001FC00524110467047FFE701B5002000F006F8A9
:10020C0002BDC0460029F7D076E770477047C0465C
:10021C0080B500AF00F0DEFE00F003F800F05CF8F3
:10022C00FEE790B595B000AF14243B1918003C23A1
:10023C001A00002100F0B8FF3B1D180010231A0013
:10024C00002100F0B1FF80239B00180000F05AF948
:10025C003B1901221A603B19802252025A6021007C
:10026C007B1802221A627B1803225A627B18002226
:10027C009A627B181022DA627B18802292021A632F
:10028C007B18802292045A637B18802292059A6311
:10029C007B18180000F076F9031E01D000F032F83C
:1002AC003B1D07221A603B1D02225A603B1D002297
:1002BC009A603B1D0022DA603B1D0221180000F001
:1002CC00C7FC031E01D000F01DF800F04BFEC04629
:1002DC00BD4615B090BD000080B582B000AF084B94
:1002EC005A6B074B20210A435A63054B5B6B202248
:1002FC0013407B607B68C046BD4602B080BDC046E3
:10030C000010024080B500AF72B6C046FEE7000098
:10031C0080B582B000AF114B1A6C104B01210A430F
:10032C001A640E4B1B6C012213407B607B680B4BD9
:10033C00DA6B0A4B802149050A43DA63074BDA6B07
:10034C0080235B0513403B603B68C023DB00180037
:10035C0000F0C6FEC046BD4602B080BD0010024093
:10036C0080B500AF00F00CFEFEE780B500AFFEE7F5
:10037C0080B500AFC046BD4680BD80B500AFC0465D
:10038C00BD4680BD80B500AF00F08EFEC046BD46B8
:10039C0080BD80B500AFC046BD4680BD90B583B072
:1003AC0000AF02003960FB1D1A70FB1D1B787F2B00
:1003BC0028D82F4AFB1D1B785BB29B08C0339B00CF
:1003CC009B58FA1D1278110003220A40D200FF211B
:1003DC0091400A00D2431A4011003B689B01FF2256
:1003EC001A40FB1D1B78180003230340DB009A40C6
:1003FC001F48FB1D1B785BB29B080A43C0339B0054
:10040C001A5031E01B4AFB1D1B7819000F230B40BF
:10041C00083B9B0806339B00D31804331B68FA1D5A
:10042C001278110003220A40D200FF2191400A00E9
:10043C00D2431A4011003B689B01FF221A40FB1D5E
:10044C001B78180003230340DB009A400948FB1D6E
:10045C001B781C000F232340083B9B080A430633E0
:10046C009B00C31804331A60C046BD4603B090BD50
:10047C0000E100E000ED00E080B582B000AF7860F4
:10048C007B685A1E80235B049A4201D3012310E03F
:10049C000A4B7A68013A5A6001235B420321180027
:1004AC00FFF77CFF054B00229A60044B07221A6071
:1004BC0000231800BD4602B080BDC04610E000E02D
:1004CC0080B584B000AFB9607A600F217B18021C34
:1004DC001A70BA687B181B785BB211001800FFF712
:1004EC005DFFC046BD4604B080BD80B582B000AF94
:1004FC0078607B681800FFF7BFFF03001800BD464B
:10050C0002B080BD80B584B000AF7860194B1B6819
:10051C00194A13401900174B7A680A431A607A6813
:10052C0080239B009A421FD1144B1A6813005B0066
:10053C009B185B0012491800FFF7DEFD0300013326
:10054C00FB6008E0FB68002B03D0FB68013BFB6001
:10055C0001E0032309E0074B5A698023DB001A40B2
:10056C008023DB009A42EDD000231800BD4604B076
:10057C0080BDC04600700040FFF9FFFF0000002066
:10058C0040420F0080B588B000AF78607B68002BCC
:10059C0002D1012300F056FB7B681B68012213403B
:1005AC0000D17DE0C34B9B6838221340BB61C14B2B
:1005BC00DB68032213407B61BB69102B02D17B6982
:1005CC00032B02D0BB69082B0CD1BA4B1A688023C1
:1005DC009B02134063D07B685B68002B5FD10123C7
:1005EC0000F030FB7B685A6880235B029A4207D18B
:1005FC00B04B1A68AF4B802149020A431A6020E0C5
:10060C007B685A68A023DB029A420ED1A94B1A6868
:10061C00A84B8021C9020A431A60A64B1A68A54B45
:10062C00802149020A431A600BE0A24B1A68A14BC5
:10063C00A1490A401A609F4B1A689E4B9F490A4079
:10064C001A607B685B68002B14D000F03FFD030040
:10065C003B6108E000F03AFD02003B69D31A642BC1
:10066C0001D90323EEE2934B1A6880239B021340BB
:10067C00F0D015E000F02AFD03003B6108E000F02B
:10068C0025FD02003B69D31A642B01D90323D9E25F
:10069C00884B1A6880239B021340F0D100E0C046BF
:1006AC007B681B680222134000D199E0814B9B6848
:1006BC0038221340BB617F4BDB68032213407B6104
:1006CC00BB69102B02D17B69022B02D0BB69002BBA
:1006DC0035D1784B1A688023DB00134005D07B683A
:1006EC00DB68002B01D10123ACE2724B5B68744ACE
:1006FC00134019007B685B691A026E4B0A435A60FF
:10070C00BB69002B12D16B4B1B686E4A134019004E
:10071C007B681A69674B0A431A60664B1B68DB0AD5
:10072C0007221340684ADA40684B1A60684B1B6812
:10073C00180000F06FFC031E51D0012382E27B688D
:10074C00DB68002B30D05B4B1B685E4A13401900F2
:10075C007B681A69574B0A431A60564B1A68554BFB
:10076C00802149000A431A6000F0B0FC03003B6191
:10077C0008E000F0ABFC02003B69D31A022B01D954
:10078C0003235FE24B4B1A688023DB001340F0D04D
:10079C00484B5B684A4A134019007B685B691A0234
:1007AC00444B0A435A601BE0424B1A68414B49497F
:1007BC000A401A6000F08AFC03003B6108E000F07C
:1007CC0085FC02003B69D31A022B01D9032339E2C1
:1007DC00384B1A688023DB001340F0D100E0C04690
:1007EC007B681B680822134047D0324B9B68382229
:1007FC001340182B0AD12F4B1B6E022213403CD0F6
:10080C007B689B69002B38D101231BE27B689B69B9
:10081C00002B19D0274B1A6E264B01210A431A665E
:10082C0000F054FC03003B6108E000F04FFC0200B8
:10083C003B69D31A022B01D9032303E21D4B1B6E18
:10084C0002221340F1D018E01A4B1A6E194B0121F9
:10085C008A431A6600F03AFC03003B6108E000F0A2
:10086C0035FC02003B69D31A022B01D90323E9E1C1
:10087C00104B1B6E02221340F1D17B681B680422C3
:10088C00134000D1C6E01F23FB1800221A70094B3D
:10089C009B6838221340202B1ED1064BDB6D0222A5
:1008AC00134000D1B6E07B689B68002B00D0B1E010
:1008BC000123C7E100100240FFFFFEFFFFFFFBFF1B
:1008CC00FF80FFFFFFC7FFFF0024F40000000020A3
:1008DC0004000020FFFEFFFFB84BDA6B80235B05A2
:1008EC00134001D1012300E00023002B11D0B34BA6
:1008FC00DA6BB24B802149050A43DA63AF4BDA6BF2
:10090C0080235B051340FB60FB681F23FB1801224F
:10091C001A70AB4B1A6880235B0013401AD1A84B9A
:10092C001A68A74B802149000A431A6000F0CEFBDD
:10093C0003003B6108E000F0C9FB02003B69D31ADD
:10094C00022B01D903237DE19D4B1A6880235B00A8
:10095C001340F0D07B689B68012B06D1974BDA6D66
:10096C00964B01210A43DA651CE07B689B68052BDA
:10097C000CD1924BDA6D914B04210A43DA658F4B03
:10098C00DA6D8E4B01210A43DA650BE08B4BDA6D85
:10099C008A4B01218A43DA65884BDA6D874B042137
:1009AC008A43DA657B689B68002B14D000F08EFBC1
:1009BC0003003B6109E000F089FB02003B69D31A9C
:1009CC00804A934201D903233CE17C4BDB6D02222C
:1009DC001340F0D013E000F079FB03003B6109E019
:1009EC0000F074FB02003B69D31A764A934201D99A
:1009FC00032327E1714BDB6D02221340F0D11F233F
:100A0C00FB181B78012B05D16C4BDA6B6B4B6E49C9
:100A1C000A40DA637B681B682022134039D07B685C
:100A2C00DB69002B1BD0654B1A68644B8021C90312
:100A3C000A431A6000F04AFB03003B6108E000F037
:100A4C0045FB02003B69D31A022B01D90323F9E0C1
:100A5C005A4B1A6880231B041340F0D019E0574BF3
:100A6C001A68564B59490A401A6000F02FFB0300D4
:100A7C003B6108E000F02AFB02003B69D31A022B11
:100A8C0001D90323DEE04D4B1A6880231B0413406D
:100A9C00F0D17B681B6A002B00D1D2E0474B9B68DE
:100AAC0038221340102B00D181E07B681B6A022B8B
:100ABC0056D1424B1A68414B45490A401A6000F026
:100ACC0005FB03003B6108E000F000FB02003B6902
:100ADC00D31A022B01D90323B4E0384B1A688023B4
:100AEC009B041340F0D1354BDB683A4A1340190094
:100AFC007B685A6A7B689B6A1A437B68DB6A1B02B9
:100B0C001A437B681B6B1A437B685B6B1A437B68CD
:100B1C009B6B1A43294B0A43DA60284B1A68274B04
:100B2C00802149040A431A60244BDA68234B802144
:100B3C0049050A43DA6000F0C9FA03003B6108E09A
:100B4C0000F0C4FA02003B69D31A022B01D903232B
:100B5C0078E01A4B1A6880239B041340F0D070E0A5
:100B6C00164B1A68154B1A490A401A60134BDA686F
:100B7C00124B03218A43DA60104BDA680F4B16498B
:100B8C000A40DA6000F0A2FA03003B6108E000F0D2
:100B9C009DFA02003B69D31A022B01D9032351E0C1
:100BAC00064B1A6880239B041340F0D149E07B6804
:100BBC001B6A012B12D1012344E0C04600100240F5
:100BCC000070004088130000FFFFFFEFFFFFBFFF26
:100BDC00FFFFFFFE8C80C111FFFFFEEE1B4BDB689D
:100BEC007B617B6903221A407B685B6A9A4226D13F
:100BFC007B6970221A407B689B6A9A421FD17A6982
:100C0C00FE23DB011A407B68DB6A1B029A4216D179
:100C1C007A69F8239B031A407B681B6B9A420ED1AE
:100C2C007A69E0231B051A407B685B6B9A4206D1FC
:100C3C007B695B0F5A077B689B6B9A4201D001233F
:100C4C0000E000231800BD4608B080BD0010024033
:100C5C0080B584B000AF786039607B68002B01D11F
:100C6C000123E9E0764B1B68072213403A689A424D
:100C7C001ED9734B1B68072293431900704B3A68BB
:100C8C000A431A6000F022FA0300FB6009E000F04E
:100C9C001DFA0200FB68D31A6A4A934201D9032356
:100CAC00CAE0674B1B68072213403A689A42EED1A0
:100CBC007B681B680222134015D07B681B680422DA
:100CCC00134006D0604B9A685F4BE021C9010A4380
:100CDC009A605D4B9B685D4A134019007B689A686B
:100CEC00594B0A439A607B681B680122134057D00A
:100CFC007B685B68012B07D1534B1A6880239B02DE
:100D0C0013402BD1012397E07B685B68022B07D142
:100D1C004D4B1A6880239B0413401FD101238BE099
:100D2C007B685B68002B07D1474B1A688023DB007C
:100D3C00134013D101237FE07B685B68032B06D142
:100D4C00414B1B6E0222134008D1012374E03E4B31
:100D5C00DB6D0222134001D101236DE03A4B9B68FD
:100D6C000722934319007B685A68374B0A439A60F1
:100D7C0000F0ACF90300FB6009E000F0A7F90200F9
:100D8C00FB68D31A2F4A934201D9032354E02E4B0C
:100D9C009B6838221A407B685B68DB009A42ECD176
:100DAC00274B1B68072213403A689A421ED2244BE9
:100DBC001B68072293431900214B3A680A431A60B7
:100DCC0000F084F90300FB6009E000F07FF90200F9
:100DDC00FB68D31A1B4A934201D903232CE0184B0E
:100DEC001B68072213403A689A42EED17B681B6855
:100DFC000422134009D0144B9B68154A1340190068
:100E0C007B68DA68104B0A439A6000F029F80100FD
:100E1C000D4B9B681B0A0F221A400E4B9200D358A5
:100E2C001F2213400A00DA400B4B1A600B4B1B6855
:100E3C00180000F0EFF803001800BD4604B080BDA8
:100E4C00002002408813000000100240FFF0FFFF5A
:100E5C00FF8FFFFFDC1100080000002004000020C1
:100E6C0080B586B000AF3C4B9B68382213400FD145
:100E7C00394B1B68DB0A0722134001229A401300EE
:100E8C003B6039683548FFF737F903003B615DE09B
:100E9C00314B9B6838221340082B02D1304B3B61FD
:100EAC0054E02D4B9B6838221340102B38D12A4B21
:100EBC00DB6803221340FB60274BDB681B0907220E
:100ECC0013400133BB60FB68032B0DD1B968244878
:100EDC00FFF712F9030019001F4BDB681B0A7F2276
:100EEC0013404B437B610DE0B9681C48FFF704F9D4
:100EFC0003001900184BDB681B0A7F2213404B437D
:100F0C007B61C046144BDB685B0F07221340013337
:100F1C007B6079687869FFF7EFF803003B6115E0B7
:100F2C000D4B9B6838221340202B03D180231B02CE
:100F3C003B610BE0084B9B6838221340182B03D104
:100F4C00FA23DB013B6101E000233B613B691800A4
:100F5C00BD4606B080BDC046001002400024F4001F
:100F6C0000127A0080B500AF044B1A68034B802145
:100F7C0009030A431A60C046BD4680BD00100240FA
:100F8C0080B582B000AF0D4BDB697B600B4B796891
:100F9C00C02292000A401A627A6880235B001340D8
:100FAC0001D000F00DF87A6880239B00134001D02B
:100FBC0000F00BF8C046BD4602B080BD00100240E8
:100FCC0080B500AFC046BD4680BD80B500AFC04601
:100FDC00BD4680BD80B582B000AFFB1D00221A70EB
:100FEC000B4B1A680A4B802149000A431A600320F4
:100FFC0000F010F8031E03D0FB1D01221A7001E053
:10100C00FFF786F9FB1D1B781800BD4602B080BDAA
:10101C000020024090B585B000AF78600F23FB181C
:10102C0000221A701D4B1B78002B2BD01C4B1C68FC
:10103C001A4B1B781900FA239800FFF75DF8030090
:10104C0019002000FFF758F803001800FFF74DFABD
:10105C00031E12D17B68032B0AD8796801235B42EB
:10106C0000221800FFF72CFA0E4B7A681A600DE07C
:10107C000F23FB1801221A7008E00F23FB18012222
:10108C001A7003E00F23FB1801221A700F23FB18B0
:10109C001B781800BD4605B090BDC0460800002066
:1010AC00000000200400002080B500AF054B1B7829
:1010BC001A00054B1B68D218034B1A60C046BD467C
:1010CC0080BDC046080000202800002080B500AF7D
:1010DC00024B1B681800BD4680BDC046280000208E
:1010EC0080B582B000AF7860064B1B68064A13408F
:1010FC001900044B7A680A431A60C046BD4602B018
:10110C0080BDC04600000140FFF9FFFF0D48854639
:10111C00FFF73FF90C480D490D4A002302E0D45863
:10112C00C4500433C4188C42F9D30A4A0A4C002325
:10113C0001E013600432A242FBD300F011F8FFF778
:10114C0067F8FEE700400220000000200C000020A1
:10115C00241200080C0000202C000020FEE70000E8
:10116C0070B500260C4D0D4C641BA410A64209D181
:10117C00002600F021F80A4D0A4C641BA410A6426C
:10118C0005D170BDB300EB5898470136EEE7B300BC
:10119C00EB5898470136F2E71C1200081C120008A5
:1011AC001C1200082012000803008218934200D180
:1011BC00704719700133F9E7F8B5C046F8BC08BCA4
:1011CC009E467047F8B5C046F8BC08BC9E467047B2
:1011DC000000000000000000000000000000000003
:1011EC0000000000000000000000000000000000F3
:1011FC0001000000020000000300000004000000D9
:10120C0006000000070000000800000009000000B4
:04121C00E5000008E1
:04122000BD00000805
:0C1224000024F4000400000001000000A1
:0400000508001119C5
:00000001FF
