:100000006F10A0191300000013000000130000007F
:100010001300000013000000130000001300000094
:100020001300000013000000130000001300000084
:08003000130000007300100032
:1000380000000000000000002E1100003011000038
:100048000000000032110000000000000000000065
:10005800341100003611000000000000000000000C
:1000680050010000000000003A11000000000000EC
:100078003C1100003E110000401100004211000038
:100088004411000046110000140C00004A11000041
:100098004C1100004E11000050110000700C0000BF
:1000A8005411000056110000581100005A110000A8
:1000B8005C1100005E110000440C00006211000099
:1000C8006411000066110000681100006A11000048
:1000D8006C1100006E110000701100007211000018
:1000E80074110000B0030000781100007A110000BC
:1000F8007C1100007E1100008011000082110000B8
:1001080084110000A6010000540200000203000050
:100118008C1100008E110000901100009211000057
:1001280094110000961100009811000000000000D2
:080138000000000000000000BF
:100140002A8311C62300B3007D16050365FE828055
:10015000411122C63AC43EC20008B7F700E0D843B6
:10016000B7F700E0799BD8C383A7C1801387170036
:1001700023A6E18083A7018199C783A70181138703
:10018000F7FF23A8E18083A7418199C783A7418115
:100190001387F7FF23AAE1800100324422479247E8
:1001A000410173002030411122C636C43AC23EC01C
:1001B0000008B7470140938707809E23C207C18389
:1001C00093F70702A1CB93874183DA2BCD4763EFE7
:1001D000E702B747014093870780DE2313970701A3
:1001E000418393874183DE2BBE861377F70F938776
:1001F0004183B69798A393874183DE2B8507139796
:100200000701418393874183DAAB29A09387418318
:10021000239A0700B7470140938707809E23C207B0
:10022000C183C18B85C3B747014093870780DE2315
:1002300093874183DA2B93874183FAAB938741837A
:10024000239A070001003244A24612478247410127
:1002500073002030411122C636C43AC23EC00008A5
:10026000B7470040938707409E23C207C18393F797
:100270000702A1CB9387C184DA2BCD4763EFE70256
:10028000B747004093870740DE2313970701418358
:100290009387C184DE2BBE861377F70F9387C184C3
:1002A000B69798A39387C184DE2B85071397070120
:1002B00041839387C184DAAB29A09387C184239AB1
:1002C0000700B7470040938707409E23C207C183BA
:1002D000C18B85C3B747004093870740DE239387D0
:1002E000C184DA2B9387C184FAAB9387C184239AA4
:1002F000070001003244A2461247824741017300C1
:100300002030411122C636C43AC23EC00008B75759
:100310000040938707809E23C207C18393F707029B
:10032000A1CB93874186DA2BCD4763EFE702B7571E
:10033000004093870780DE2313970701418393874B
:100340004186DE2BBE861377F70F93874186B697DB
:1003500098A393874186DE2B850713970701418376
:1003600093874186DAAB29A093874186239A0700B9
:10037000B7570040938707809E23C207C183C18B74
:1003800085C3B757004093870780DE239387418654
:10039000DA2B93874186FAAB93874186239A07002D
:1003A00001003244A24612478247410173002030C7
:1003B000411122C63AC43EC20008B70700409387E5
:1003C00007409E2BC207C183858B8DC3B7070040B2
:1003D000938707409E2B139707014183B70700407F
:1003E00093870740799B420741839AAB01003244CF
:1003F00022479247410173002030011122CE0010A4
:100400002326A4FE8327C4FEFD8B0547B316F70001
:1004100037E700E08327C4FE9583938707048A07A4
:10042000BA9794C30100724405618280011122CE03
:1004300000102326A4FEAE87A305F4FE0347B4FEF6
:100440009D4763F5E7009D47A305F4FEB7E600E08E
:100450008347B4FE960713F7F70F8327C4FEB697BA
:100460002380E7400100724405618280411122C669
:100470000008B7170240984FB717024013674700AC
:1004800098CFB7170240984FB7170240136717006D
:1004900098CFB7070140D443B7070140370700F9A9
:1004A0007D17758FD8C3B7170140938707805967A9
:1004B00098CFB717014093870780196798CFB71770
:1004C000014093870780596798CFB71701409387FA
:1004D00007809C4F0100324441018280411122C6B5
:1004E0000008B71702409843B71702401367170078
:1004F00098C30100B71702409C43898BE5DFB7170B
:1005000002409443B71702403707FCFF7D17758FF1
:1005100098C3B71702409443B71702404167558FFD
:1005200098C30100B71702409843B7070200F98F3C
:10053000F5DBB71702409443B717024037070800AE
:10054000558F98C3B7170240DC4313F7C7FFB7179F
:10055000024013671700D8C3B71702409443B71778
:100560000240370700FF7D17758F98C3B717024009
:10057000DC4313F7F7F0B717024013670708D8C337
:10058000B7270240944BB7270240370700FE7D177C
:10059000758F98CBB7170240DC4313F7F78FB71767
:1005A000024013670740D8C3B7170240D443B717B8
:1005B000024071771307F77F758FD8C3B7170240D2
:1005C000D843D177FD17B376F700B71702402167FC
:1005D000558FD8C3B7170240D443B71702400177ED
:1005E0007D17758FD8C3B7170240D443B7170240A1
:1005F0004167558FD8C3B7170240D443B71702409D
:1006000037073C00558FD8C3B7170240D843B70708
:1006100040FFFD17B376F700B71702403707800099
:10062000558FD8C3B7170240D843B70700F9FD1755
:10063000B376F700B717024037070006558FD8C3C7
:10064000B71702409443B717024037070001558F90
:1006500098C3B7170240DC4313F7C7FFB717024030
:1006600013672700D8C30100B71702409843B707A4
:100670000002F98FF5DB0100010032444101828064
:10068000411106C622C40008B7F700E09843B7F747
:1006900000E0799B98C3B7F700E09843B7F700E014
:1006A0001367270098C3B7F700E09843B7F700E057
:1006B0006D9B98C3B7F700E09843B7F700E0136766
:1006C000870098C3B7F700E09843B7F700E01367D7
:1006D000070198C3B7F700E09843B7F700E0136746
:1006E000070298C3B7F600E009671307773281471E
:1006F00098CADCCA314511339D453145053BB7F7F2
:1007000000E09843B7F700E01367170098C30100B3
:10071000B240224441018280011122CE00102326E2
:10072000A4FE0327C4FE23A8E180010083A7018162
:10073000F5FF01000100724405618280797122D6C3
:100740000018232EA4FCAE873687A30DF4FCB287D5
:10075000230DF4FCBA87A30CF4FCA30704FE834723
:10076000A4FD89C70547638EE702A5A88347B4FDAA
:100770008A07A307F4FE8327C4FD98438347F4FE4A
:100780008D46B397F60093C7F7FFF98F834694FD24
:100790000347F4FE3397E6005D8F8327C4FD98C3BB
:1007A00089A08347B4FDE117A30DF4FC8347B4FD92
:1007B0008A07A307F4FE8327C4FDD8438347F4FECA
:1007C0008D46B397F60093C7F7FFF98F834694FDE4
:1007D0000347F4FE3397E6005D8F8327C4FDD8C33B
:1007E00001000100325445618280797106D622D41D
:1007F0000018232EA4FCAE873287A30DF4FCBA8721
:10080000230DF4FCA30704FE0347B4FD9D4763E5F5
:10081000E700A30704FE21A08547A307F4FE834752
:10082000A4FD81EF0347F4FE8347B4FD81463A8679
:10083000BE850325C4FD193785A00347A4FD854760
:10084000631DF7000347F4FE8347B4FD85463A86EF
:10085000BE850325C4FDDD3581A00347A4FD89477E
:10086000631DF7000347F4FE8347B4FD89463A86CB
:10087000BE850325C4FDD93505A00347A4FD8D47DA
:10088000631CF7000347F4FE8347B4FD8D463A86A8
:10089000BE850325C4FD5D350100B250225445617B
:1008A0008280011122CE00102326A4FEAE8732875B
:1008B0002322D4FEA305F4FEBA872305F4FE834762
:1008C000B4FE89C70547638DE7029DA08327C4FE58
:1008D0009843832744FE9C23BE868D47B397D70059
:1008E00093C7F7FFF98F0347A4FE832644FE9422A3
:1008F0003317D7005D8F8327C4FE98C301000DA86E
:100900008327C4FED843832744FE9C23BE868D479D
:10091000B397D70093C7F7FFF98F0347A4FE832649
:1009200044FE94223317D7005D8F8327C4FED8C3BB
:100930000100724405618280011106CE22CC0010B4
:100940002326A4FE2324B4FE2320F4FEB287A303AF
:10095000F4FEB6872303F4FEBA87A302F4FE8347AE
:1009600074FE09476386E70809476343F71489C79C
:1009700005476381E7042DAA834764FE89C70547BD
:10098000638EE70035A2032704FE834754FEBA8630
:100990000146BE850325C4FE293721A8032704FE8E
:1009A000834754FEBA860546BE850325C4FED53D61
:1009B0000100FDA8834764FE89C70547638EE700F1
:1009C000C5A8032704FE834754FEBA860946BE85A0
:1009D0000325C4FEF93521A8032704FE834754FEEE
:1009E000BA860D46BE850325C4FE653D0100C9A03B
:1009F000834764FE15476383E70815476349F70A91
:100A000011476382E70411476343F70A0947638686
:100A1000E7000D47638EE70059A8032704FE8347CC
:100A200054FEBA860146BE850325C4FE9D3D41A005
:100A3000032704FE834754FEBA860546BE85032578
:100A4000C4FE8535ADA0032704FE834754FEBA8655
:100A50000946BE850325C4FEA9358327C4FED847B1
:100A6000832784FE9C23BE868547B397D70093C710
:100A7000F7FF7D8F8327C4FED8C715A8032704FE80
:100A8000834754FEBA860946BE850325C4FE113D40
:100A90008327C4FED847832784FE9C23BE868547D0
:100AA000B397D7005D8F8327C4FED8C7010001002C
:100AB0000100F240624405618280797106D622D439
:100AC0000018232EA4FCAE87A30DF4FCB287230DDF
:100AD000F4FCB687A30CF4FCBA87230CF4FCA30740
:100AE00004FE0327C4FDB717014093870780631BEB
:100AF000F700B7170240984FB71702401367470037
:100B000098CF51A00327C4FDB7170140938707C0B2
:100B1000631BF700B7170240984FB71702401367DF
:100B2000870098CF8DA00327C4FDB7170140631B32
:100B3000F700B7170240984FB71702401367070135
:100B400098CF91A00327C4FDB717014093870740B2
:100B5000631BF700B7170240984FB717024013679F
:100B6000070298CF0DA00327C4FDB7270140938744
:100B70000780631AF700B7170240984FB717024073
:100B80001367070498CF8347B4FD034784FD3A8673
:100B9000BE850325C4FD91390347B4FD9D4763E934
:100BA000E7028347B4FD8A0793F7F70F890793F7A6
:100BB000F70FA307F4FE9307F4FE834694FD034664
:100BC000A4FD9305B4FD01470325C4FDB53335A845
:100BD0008347B4FDE11793F7F70FA30DF4FC8347A8
:100BE000B4FD8A0793F7F70F890793F7F70FA30769
:100BF000F4FE9307F4FE834694FD0346A4FD93059B
:100C0000B4FD05470325C4FD053B0100B250225445
:100C100045618280411122C63AC43EC20008B7072E
:100C2000014093870740D84BB7070140938707409F
:100C300013671700D8CB0100324422479247410185
:100C400073002030411122C63EC40008B72701407E
:100C5000938707409C43898B91C7B72701409387AF
:100C60000740DC5F01003244A2474101730020309D
:100C7000411122C63AC43EC20008B70702409C4355
:100C8000898B91CBB7070240D843B707024013675F
:100C90001700D8C331A8B70702409C43A18B89CB6A
:100CA000B7070240D843B707024013671700D8C3FD
:100CB0000100324422479247410173002030411124
:100CC00006C622C40008B7170240984FB717024063
:100CD0001367870098CFB7170240984FB7170240A5
:100CE0001367170098CFB7170140938707C0D84301
:100CF000FD779387F73FB376F700B71701409387E7
:100D000007C0056713070780558FD8C3B717014081
:100D1000938707C0D843B7170140938707C013676D
:100D20000730D8C3B7170140938707C0D843D1779E
:100D3000FD17B376F700B7170140938707C0116717
:100D4000558FD8C3B7170140938707C0D443B7174F
:100D50000140938707C075777D17758FD8C3B71784
:100D60000240D44FB717024037070400558FD8CF41
:100D7000B7570040938707809E27C207C183C207E9
:100D8000C187BD8BC207C18793E70713139707017C
:100D90004187B757004093870780420741839AA74E
:100DA000B7570040938707809E27C207C183C207B9
:100DB000C187C19BC207C18793E7870013970701CB
:100DC0004187B757004093870780420741839AA71E
:100DD000B757004093870780DE2793960701C182AB
:100DE000B7570040938707800967558F42074183B3
:100DF000DAA7B757004093870780DE27939607014D
:100E0000C182B7570040938707807D777D17758F24
:100E100042074183DAA7B757004093870780DE2750
:100E200093960701C182B7570040938707807D776B
:100E30001307F77F758F42074183DAA7B757004042
:100E400093870780DE27139707014183B757004038
:100E5000938707801377F7BF42074183DAA7B75715
:100E6000004093870780DE27139707014183B75718
:100E70000040938707801377F7EF42074183DAA793
:100E8000B757004093870780DE27139707014183F8
:100E9000B7570040938707801377F7F742074183DE
:100EA000DAA7B757004093870780DE27139707011B
:100EB0004183B7570040938707801377F7FB4207BA
:100EC0004183DAA7B757004093870780DE2713973F
:100ED00007014183B75700409387078013670702D4
:100EE00042074183DAA7B757004093870780DE2780
:100EF000139707014183B757004093870780136713
:100F0000070142074183DAA7B7570040938707805C
:100F1000DE27139707014183B75700409387078067
:100F20001367870042074183DAA7B75700409387CA
:100F30000780DE27139707014183B7570040938747
:100F400007801367470042074183DAA7B75700407D
:100F500093870780DE27139707014183B757004027
:100F600093870780759B42074183DAA7B7570040F4
:100F700093870780DE27139707014183B757004007
:100F800093870780799B42074183DAA7B7570040D0
:100F90009387078023980700B757004093870780FF
:100FA0009E2B93960701C182B75700409387078015
:100FB00075777D17758F420741839AABB75700400D
:100FC00093870780239A0700B757004093870780CD
:100FD000239C070013057003EFF02FC29145130502
:100FE0007003EFF0AFC40100B2402244410182809F
:100FF000411106C622C40008EFF04FC7EFF00FCE34
:10100000EFF00FE86D390D4781460146B5453715BC
:10101000014065348967138587DE1926B7170140BB
:10102000096798CB13054006EFF00FEFB7170140A3
:101030003707002098CB1305800CEFF0EFEDB707D2
:10104000002083A7070613871700B707002023A0F7
:10105000E706E9B7797106D622D40018232EA4FC3E
:10106000232CB4FC232AC4FC232604FE2DA8010053
:1010700093050004B7570040138507808528AA8789
:10108000E5DB832784FD13871700232CE4FC9C23D6
:10109000BE85B7570040138507801D208327C4FEF7
:1010A00085072326F4FE0327C4FE832744FDE3407F
:1010B000F7FC832744FD3E85B2502254456182806F
:1010C000011122CE00102326A4FEAE872315F4FEC4
:1010D0008357A4FE93F7F71F1397070141838327D4
:1010E000C4FEDAA30100724405618280797122D6C0
:1010F0000018232EA4FCAE87231DF4FC232604FE37
:101100008327C4FD9E23C207C1830357A4FDF98F23
:10111000C207C18389C785472326F4FE19A0232669
:1011200004FE8327C4FE3E8532544561828001A0BF
:1011300001A001A001A001A001A001A001A001A0A7
:1011400001A001A001A001A001A001A001A001A097
:1011500001A001A001A001A001A001A001A001A087
:1011600001A001A001A001A001A001A001A001A077
:1011700001A001A001A001A001A001A001A001A067
:1011800001A001A001A001A001A001A001A001A057
:1011900001A001A001A001A001A097F1FF1F938170
:1011A000616C174100201301E1E5171500001305DC
:1011B000E5CA97F5FF1F9385E5E41386C18063FABE
:1011C000C5008322050023A0550011059105E3EA1F
:1011D000C5FE1385C1809385C1876377B500232041
:1011E00005001105E36DB5FEFD42739002BC8D4212
:1011F000739042809302800873A0023097F2FFFF41
:101200009382C2E393E2320073905230970200005F
:10121000938242DE7390123473002030011126CA8B
:1012200006CE22CC4AC84EC652C4AA8419E11C4537
:1012300002901C4D2E89ADE325239C4C8044B9CFF0
:1012400097170000938787BF631DF404C0407C504C
:10125000858B99E75E2493F7072099E3284CAD2D01
:101260005E24A18B99C31C48D5E3A2852685AD2AAF
:1012700051CDFD547C50858B99E75E2493F7072070
:1012800099E3284C992DF24062444249B249224ADE
:101290002685D2440561828000455DB72685C92137
:1012A00045B797170000938767B76314F40080442D
:1012B00079BF97170000938767B4E31AF4F8C04426
:1012C00079B71CC4050963C807021C4013871700BF
:1012D00018C08CA31C4483450900FD17FDF11CC4F4
:1012E00063D907022286A94526858920FD57E30296
:1012F000F5F8A94441B7184C63C4E700E39745FDEE
:10130000228626852520E31735FDA5B7FD59294AF4
:10131000D1B71C401387170018C0294798A3D1BF25
:10132000AA8517F5FF1F032525D4CDBD011122CCB9
:1013300026CA4AC806CE4EC6AA842E89328401C562
:101340001C4D91E3312997170000938727AF63174E
:10135000F402C0401C4C1CC45E24A18B99C31C48E1
:1013600095EFA2852685492015C97D59F240624432
:10137000D244B2494A8542490561828097170000EC
:101380009387C7A96314F4008044E9B79717000056
:101390009387C7A6E310F4FCC0446DBF1C48084007
:1013A0009379F90F1379F90F1D8D5C486346F500A9
:1013B000A2852685A12C55F91C440505FD171CC4E2
:1013C0001C401387170018C0238037015C486388CE
:1013D000A7005E24858BD9DBA947E319F9F8A2851C
:1013E00026852D2441D551B7411122C426C24AC0B9
:1013F00006C697F4FF1F83A424C72A892E8489C4B4
:101400009C4C99E32685A92E97170000938707A384
:101410006313F402C0408317C40013F7870025E765
:1014200013F707010DEB25472320E90093E7070495
:101430005EA47D5571A0971700009387279E6314C3
:10144000F4008044C9BF971700009387279BE314DB
:10145000F4FCC044C9B7918B9DC34C5889C993070C
:1014600044046384F5004A85B92B232A04025E24D0
:101470002322040093F7B7FD5EA41C481CC05E2421
:1014800093E787005EA41C4899EB5E2413070020B5
:1014900093F707286385E700A2854A8561298317AA
:1014A000C40013F717001DC3584823240400330752
:1014B000E04018CC1848014501E713F707083DF74D
:1014C000B2402244924402494101828013F727002E
:1014D000814611E3544814C4F1BF8397C50001113C
:1014E00022CC26CA06CE4AC84EC613F78700AA8465
:1014F0002E8479E3D8416345E000B8416356E008A3
:10150000585459C3B18303A90400858B23A0040058
:101510000C50A9CB70485E24918B99C75C401D8EFE
:101520005C5899C33C401D8E5C540C508146268506
:101530008297FD57630CF5041C48056723220400BD
:101540001CC05E24F98F91C368C84C5823A02401A5
:1015500085CD930744046384F5002685AD21232AB5
:1015600004021DA00146854626850297FD572A865E
:10157000E313F5FA9C40C5D375476385E7005947E7
:101580006395E70623A024010145B5A09840831781
:10159000C40001CFF5466305D700D9466319D704C7
:1015A0001C48232204001CC04DB71848B1832322D5
:1015B000040018C0858B41BF83A90501E38609FC9F
:1015C00003A905008D8B23A035013309394101475B
:1015D00091E3D84918C4E35920FB1C540C50CA8627
:1015E0004E8626858297634FA0008317C40093E739
:1015F00007045EA47D55F2406244D2444249B24998
:1016000005618280AA993309A940F1B79C4941112B
:1016100006C622C426C281EB8144B24022442685FC
:10162000924441018280AA842E8401C51C4D91E31D
:10163000052A9717000093876780631CF402C04057
:101640008317C400F1DB7850058B11E793F707206F
:1016500099E3284C51242685A28541357C50AA84E3
:10166000858BC5FF5E2493F70720C5FB284CB52466
:101670006DB7970700009387677A6314F40080447E
:10168000C1B79707000093876777E31BF4FAC0445C
:1016900045BF411122C406C62A844EA572A5232047
:1016A0000500232205002324050023220506232804
:1016B0000500232A0500232C05002146814513053A
:1016C000C505EFE0FFA797070000938707525CD09E
:1016D00097070000938727541CD49707000093872F
:1016E00007585CD4970700009387675AB24000D030
:1016F0001CD822444101828097050000938545F162
:10170000BDA2411126C2930780069384F5FFB384DE
:10171000F4024AC02E8922C406C693854407692E66
:101720002A8401CD2320050023222501310508C488
:10173000138684068145EFE0BFA0B2402285224493
:1017400092440249410182801385C18171A21385AF
:10175000C18161A21385018241A213850182B5AACC
:10176000411122C406C62A84F5371C4C89C722447D
:10177000B2404101DDB797070000938727F81CD4DA
:1017800023240404232604042328040483A781803B
:101790006394870085471CCC22853D2048C0228564
:1017A000252008C422850D2048C4484001469145A3
:1017B000CD3508440546A545E93D48440946C94597
:1017C000C93D85471CCC65B7411126C24AC006C633
:1017D00022C42A89953F83A481809C4C99E3268565
:1017E0004137938484048044DC40FD1763D60700AE
:1017F0009C40BDC38440C5BF0317C40039EBC1770B
:1018000085075CC41305840523220406E92081377B
:10181000214623200400232404002322040023283B
:101820000400232A0400232C040081451305C40569
:10183000EFE01F91232A0402232C04022324040432
:1018400023260404B24022852244924402494101E5
:1018500082801304840651BF91454A855D3588C056
:101860002A8449F9ED35B1472320F900E1BF7971A8
:1018700022D44AD04ECE52CC5AC85EC606D626D204
:1018800056CA2A892E8A130485048149054BFD5BBB
:101890000444832A4400FD1A63D00A0200406DF814
:1018A000B250225492540259624AD24A424BB24B2D
:1018B0004E85F24945618280DE24637BFB0083977D
:1018C000E40063877701A6854A85029AB3E9A900F7
:1018D00093848406C9B78280828082805971A2D4A1
:1018E0002E848395E500A6D2CAD086D6B2843689E6
:1018F00063D205025E2493F707088DEB13070040BF
:10190000B65026542320F90098C006599654014534
:10191000656182803000F126E34E05FC3247BD67E9
:10192000F98F7977BA9793B71700C9BF8147130723
:101930000004F9B7DE25797122D406D626D24AD022
:101940004ECE898B2E8491CF930774041CC01CC883
:1019500085475CC8B250225492540259F2494561FD
:10196000828074003000AA84953FA2492A89268586
:10197000CE85992219E98317C40013F7072079FB54
:10198000F19B93E727005EA4C1B7970700009387F8
:10199000E7D69CD45E2408C008C893E707085EA475
:1019A000B247232A340199CB8315E4002685B12E52
:1019B00011C55E24F19B93E717005EA45E2433E516
:1019C00027014AA441BFD1CD83A7C5FF011122CC75
:1019D00006CE1384C5FF63D307003E942AC6B52EF6
:1019E000138781821C43324581EB2322040000C30C
:1019F0006244F2400561ADA6637DF4001040B30679
:101A0000C4006396D7009443DC43B29614C05CC014
:101A1000F9BF3E87DC4399C3E37DF4FE14433306EC
:101A2000D700631F86001040B29614C33306D70058
:101A3000E390C7FC9043DC43B29614C35CC34DBF34
:101A40006375C400B1471CC165B71040B306C4003C
:101A50006396D7009443DC43B29614C05CC040C385
:101A600041BF828041114AC0138941828327090006
:101A700022C426C206C6AA842E8489E7814589220B
:101A80002320A900A2852685252A7D59631A2501D0
:101A90007D54B24022852244924402494101828011
:101AA000130435007198E30685FEB305A44026852E
:101AB000012AE31025FFE9BF011126CA93843500EE
:101AC000F1984AC806CE22CC4EC6A104B1472A8955
:101AD00063F3F406B14463E2B4064A85BD2C9389EE
:101AE000818283A709003E8425E4A6854A859D3F1F
:101AF000FD572A846314F50C03A40900A287D5E7D7
:101B00008329040081454A85A2995D286392A90A28
:101B10001C408D049D8CF198A104B14763F3F4003F
:101B2000B144A6854A853D3FFD576303F5081C4037
:101B3000A6971CC03DA8E3D004FAB1472320F900C2
:101B40000145F2406244D2444249B2490561828073
:101B50001440858E63C806042D47637DD70204C0F8
:101B6000330794006396870223A0E9005C4014C306
:101B70005CC34A85F5221305B400930744006199BC
:101B80003307F540E30FF5FA3A94898F1CC055BF2F
:101B9000D8C3E9BF58406395870023A0E900D1BFAF
:101BA000D8C3C1BFA287404081B73E84DC4381BF18
:101BB000B1472320F9004A85652259B704C155BFB2
:101BC000411122C42A842E8523A6018206C6FD2A3D
:101BD000FD576316F50083A7C18291C31CC0B240B4
:101BE000224441018280411122C42E848395E50064
:101BF00006C6952A634905007C48AA977CC8B2406E
:101C00002244410182805E247D777D17F98F5EA496
:101C1000FDB7DE25011122CC26CA4AC84EC606CE23
:101C200093F70710AA842E843289B68991C78395C9
:101C3000E50089460146ED285E247D777D17F98F02
:101C40008315E4005EA46244F240CE864A86B2491F
:101C500042492685D244056125A8411122C42E841B
:101C60008395E50006C6E9207D575E24631AE500EA
:101C70007D777D17F98F5EA4B240224441018280B6
:101C80000567D98F5EA468C8C5BF8395E5003DA0F0
:101C9000411122C42A842E85B285368623A601826C
:101CA00006C6EFF02FBBFD576316F50083A7C18270
:101CB00091C31CC0B240224441018280411122C420
:101CC0002A842E8523A6018206C6D920FD576316D5
:101CD000F50083A7C18291C31CC0B24022444101D8
:101CE0008280411122C42A842E85B28523A60182D6
:101CF00006C66D20FD576316F50083A7C18291C308
:101D00001CC0B240224441018280411122C42A8475
:101D10002E8523A6018206C64128FD576316F500CD
:101D200083A7C18291C31CC0B2402244410182807A
:101D3000411122C42A842E85B285368623A60182CB
:101D400006C68D28FD576316F50083A7C18291C38F
:101D50001CC0B24022444101828013858181ADBE06
:101D6000138581819DBE411122C42A842E85B285AE
:101D7000368623A6018206C6A120FD576316F5000C
:101D800083A7C18291C31CC0B2402244410182801A
:101D90009307800523A6F1827D55828093078005F5
:101DA00023A6F1827D5582809307800523A6F182C8
:101DB000014582809307800523A6F1827D558280AC
:101DC0009307800523A6F1827D55828013870183C6
:101DD0001C4389C73E9508C33E8582809387C1878F
:101DE0003E9508C33E85828048656C6C6F20776F96
:101DF000726C64210D000000000000000000000073
:101E000000000000000000000000000000000000D2
:101E100000000000000000000000000000000000C2
:101E200000000000000000000000000000000000B2
:101E300000000000000000000000000000000000A2
:101E40000000000000000000000000000000000092
:081E500000000000000000008A
:101E580000000000381E0000181E0000F81D0000D9
:101E6800000000000000000000000000000000006A
:101E7800000000000000000000000000000000005A
:101E8800000000000000000000000000000000004A
:101E9800000000000000000000000000000000003A
:101EA800000000000000000000000000000000002A
:0C1EB8000C0000000000002000000020D2
:00000001FF
