:020000040800F2
:1000000000800020CD1D0008690700086F07000868
:10001000750700087B070008810700080000000042
:10002000000000000000000000000000870700083A
:1000300093070008000000009F070008AB070008B6
:10004000151E0008151E0008151E0008151E0008C4
:10005000151E0008151E0008151E0008151E0008B4
:10006000151E0008151E0008151E0008151E0008A4
:10007000151E0008151E0008151E0008151E000894
:10008000151E0008151E0008151E0008151E000884
:10009000151E0008151E0008151E0008151E000874
:1000A00000000000151E0008151E0008151E00089F
:1000B000151E0008151E0008151E0008151E000854
:1000C000151E0008151E0008151E0008151E000844
:1000D000151E0008151E0008151E0008151E000834
:1000E000151E0008151E0008151E0008151E000824
:1000F000151E0008000000000000000000000000C5
:1001000000000000000000000000000000000000EF
:1001100000000000000000000000000000000000DF
:1001200000000000000000000000000000000000CF
:0C01300000000000000000005FF808F173
:10013C0010B5054C237833B9044B13B10448AFF315
:10014C0000800123237010BD70000020000000000F
:10015C007027000808B5034B1BB103490348AFF3E4
:10016C00008008BD0000000074000020702700080B
:10017C0053B94AB9002908BF00281CBF4FF0FF3102
:10018C004FF0FF3000F076B9ADF1080C6DE904CEFC
:10019C0000F006F8DDF804E0DDE9022304B0704756
:1001AC002DE9F047089E0D4604468846002B4DD19C
:1001BC008A42944668D9B2FA82F252B101FA02F339
:1001CC00C2F1200120FA01F10CFA02FC41EA030809
:1001DC0094404FEA1C41B8FBF1F71FFA8CFE01FB6F
:1001EC00178807FB0EF0230C43EA084398420AD900
:1001FC001CEB030307F1FF3580F01E81984240F29F
:10020C001B81023F63441B1AB3FBF1F001FB10335B
:10021C0000FB0EFEA4B244EA0344A6450AD91CEB2B
:10022C00040400F1FF3380F00981A64540F20681F9
:10023C00644402380021A4EB0E0440EA07401EB1CE
:10024C000023D440C6E90043BDE8F0878B4208D9AF
:10025C00002E00F0EE800021C6E900050846BDE83E
:10026C00F087B3FA83F100294AD1AB4202D3824220
:10027C0000F2FC80841A65EB030301209846002EE3
:10028C00E2D0C6E90048DFE702B9FFDEB2FA82F23B
:10029C00002A40F09180A1EB0C0001214FEA1C4791
:1002AC001FFA8CFEB0FBF7F307FB1300250C45EA95
:1002BC0000450EFB03F0A84208D91CEB050503F121
:1002CC00FF3802D2A84200F2CE8043462D1AB5FB6D
:1002DC00F7F007FB10550EFB00FEA4B244EA0544F0
:1002EC00A64508D91CEB040400F1FF3502D2A64543
:1002FC0000F2B6802846A4EB0E0440EA03409EE7C9
:10030C00C1F120078B4022FA07FC4CEA030C25FABA
:10031C0007FA4FEA1C49BAFBF9F820FA07F309FB74
:10032C0018AA8D401FFA8CFE1D4300FA01F308FB3E
:10033C000EF02C0C44EA0A44A04202FA01F20BD94A
:10034C001CEB040408F1FF3A80F08880A04240F2D4
:10035C008580A8F102086444241AB4FBF9F009FB67
:10036C00104400FB0EFEADB245EA0444A64508D984
:10037C001CEB040400F1FF356CD2A6456AD9023897
:10038C00644440EA0840A0FB0295A4EB0E04AC4286
:10039C00C846AE4656D353D0002E69D0B3EB0802F4
:1003AC0064EB0E0422FA01F304FA07F71F43CC4066
:1003BC00C6E90074002147E70CFA02FCC2F12001E7
:1003CC0025FA01F34FEA1C4720FA01F195400D4341
:1003DC00B3FBF7F107FB11331FFA8CFE280C40EA34
:1003EC00034001FB0EF3834204FA02F408D91CEB20
:1003FC00000001F1FF382FD283422DD9023960441D
:10040C00C01AB0FBF7F307FB1300ADB245EA004589
:10041C0003FB0EF0A84208D91CEB050503F1FF38CD
:10042C0016D2A84214D9023B6544281A43EA01416A
:10043C0038E73146304607E72F46E4E61846F9E63A
:10044C004B45A9D2B9EB020865EB0C0E0138A3E7BA
:10045C004346EAE7284694E74146D1E7D0467BE796
:10046C006444023847E7023B65442FE7084606E739
:10047C003146E9E6704700BF80B500AF00F0D2F915
:10048C0000F030F800F0A6F800F07AF8104B4FF0BE
:10049C0000529A61642000F033FA0D4B4FF4005275
:1004AC009A61642000F02CFA0A4B1B681A460A4920
:1004BC000A4801F0DDFC03469AB264230749084858
:1004CC0001F0BDFA034B1B680133024A1360DDE7F0
:1004DC00000802408C0000208827000890000020B3
:1004EC009001002080B592B000AF07F114033422C4
:1004FC000021184601F0B4FC3B4600221A605A60F9
:10050C009A60DA601A611D4B1B6823F4C0531B4AB6
:10051C0043F40063136002237B6101233B621023CD
:10052C007B620223BB630023FB634FF480233B6499
:10053C004FF480037B6407F11403184600F07EFC33
:10054C000346002B01D000F091F80F233B600323EE
:10055C007B600023BB600023FB6000233B613B46B8
:10056C000121184600F09AFF0346002B01D000F041
:10057C007DF800BF4837BD4680BD00BF007000400D
:10058C0080B500AF114B124A1A60104B4FF4E13298
:10059C005A600E4B00229A600C4B0022DA600B4B17
:1005AC0000221A61094B0C225A61084B00229A61F5
:1005BC00064B0022DA61054801F0F4F90346002BE2
:1005CC0001D000F053F800BF80BD00BF90010020A7
:1005DC000038014080B588B000AF07F10C03002251
:1005EC001A605A609A60DA601A611E4BDB691D4A08
:1005FC0043F00403D3611B4BDB6903F00403BB60C2
:10060C00BB68184BDB69174A43F02003D361154BC9
:10061C00DB6903F020037B607B68124BDB69114ABA
:10062C0043F00103D3610F4BDB6903F001033B6023
:10063C003B6800224FF400510B4800F0E7FB4FF4ED
:10064C000053FB6001233B6100237B610023BB61F2
:10065C0007F10C031946044800F058FA00BF203784
:10066C00BD4680BD003802400008024080B400AF97
:10067C0072B600BFFEE7000080B485B000AF144B2B
:10068C005B6A134A43F000435362114B5B6A03F0FD
:10069C000043FB60FB680E4B1B6A0D4A43F00103E1
:1006AC0013620B4B1B6A03F00103BB60BB68084B66
:1006BC005B6A074A43F080535362054B5B6A03F055
:1006CC0080537B607B6800BF1437BD4680BC70478D
:1006DC000038024080B58AB000AF786007F114038F
:1006EC0000221A605A609A60DA601A617B681B6893
:1006FC00174A934228D1174B1B6A164A43F480437E
:10070C001362144B1B6A03F480433B613B69114B2E
:10071C00DB69104A43F00103D3610E4BDB6903F034
:10072C000103FB60FB684FF4C0637B610223BB6178
:10073C000023FB6103233B6207237B6207F1140355
:10074C001946054800F0E2F900BF2837BD4680BDC8
:10075C0000380140003802400000024080B400AF75
:10076C00FEE780B400AFFEE780B400AFFEE780B4D4
:10077C0000AFFEE780B400AFFEE780B400AF00BF6F
:10078C00BD4680BC704780B400AF00BFBD4680BC86
:10079C00704780B400AF00BFBD4680BC704780B5C9
:1007AC0000AF00F091F800BF80BD000080B586B0AE
:1007BC0000AF7860144A154BD31A7B617B693B619F
:1007CC00134B1B68002B02D1114B124A1A60104BB1
:1007DC001A687B6813443A699A4207D201F016FBF7
:1007EC0003460C221A604FF0FF3309E0084B1B68DC
:1007FC00FB60074B1A687B681344054A1360FB685F
:10080C0018461837BD4680BD00800020000400004B
:10081C00D4010020F001002080B400AF00BFBD4621
:10082C0080BC704780B582B000AF0023FB71032001
:10083C0000F038F90F2000F00DF80346002B02D021
:10084C000123FB7101E0FFF717FFFB79184608370E
:10085C00BD4680BD80B584B000AF78600023FB73CB
:10086C00164B1B68002B22D0154B1A68134B1B68B8
:10087C004FF47A71B1FBF3F3B2FBF3F3184600F0CB
:10088C0038F90346002B0FD17B680F2B09D80022B7
:10089C0079684FF0FF3000F010F90A4A7B6813605A
:1008AC0007E00123FB7304E00123FB7301E0012348
:1008BC00FB73FB7B18461037BD4680BD080000203B
:1008CC00000000200400002080B400AF054B1A6823
:1008DC00054B1B681344034A136000BFBD4680BC24
:1008EC00704700BFD80100200800002080B400AF82
:1008FC00024B1B681846BD4680BC7047D8010020CF
:10090C0080B584B000AF7860FFF7F0FFB8607B680B
:10091C00FB60FB68B3F1FF3F04D0094B1B68FA681E
:10092C001344FB6000BFFFF7E1FF0246BB68D31A1C
:10093C00FA689A42F7D800BF00BF1037BD4680BD99
:10094C000800002080B485B000AF78607B6803F0AD
:10095C000703FB600C4BDB68BB60BA684FF6FF0308
:10096C001340BB60FB681A02BB68134343F0BF63C0
:10097C0043F40033BB60044ABB68D36000BF143738
:10098C00BD4680BC704700BF00ED00E080B400AFF6
:10099C00044BDB681B0A03F007031846BD4680BCFA
:1009AC00704700BF00ED00E080B483B000AF034699
:1009BC003960FB7197F90730002B0ADB3B68DAB220
:1009CC000C4997F907301201D2B20B4483F800237B
:1009DC000AE03B68DAB20849FB7903F00F03043BE9
:1009EC001201D2B20B441A7600BF0C37BD4680BC44
:1009FC00704700BF00E100E000ED00E080B489B07A
:100A0C0000AFF860B9607A60FB6803F00703FB6124
:100A1C00FB69C3F10703042B28BF0423BB61FB69EB
:100A2C000433062B02D9FB69033B00E000237B61F6
:100A3C004FF0FF32BB6902FA03F3DA43BB681A408A
:100A4C007B699A404FF0FF317B6901FA03F3D9437C
:100A5C007B680B40134318462437BD4680BC704757
:100A6C0080B582B000AF78607B68013BB3F1807FCA
:100A7C0001D301230FE00A4A7B68013B53600F212D
:100A8C004FF0FF30FFF790FF054B00229A60044BAC
:100A9C0007221A60002318460837BD4680BD00BFE8
:100AAC0010E000E080B582B000AF78607868FFF7A6
:100ABC0049FF00BF0837BD4680BD80B586B000AF8A
:100ACC000346B9607A60FB7300237B61FFF75EFF1E
:100ADC0078617A68B9687869FFF790FF024697F9F0
:100AEC000F3011461846FFF75FFF00BF1837BD46A1
:100AFC0080BD80B582B000AF78607868FFF7B0FF3A
:100B0C00034618460837BD4680BD000080B487B048
:100B1C0000AF7860396000237B610023FB60002309
:100B2C003B6154E13B681A6801217B6901FA03F3CC
:100B3C001340FB60FB68002B00F046813B685B6850
:100B4C0003F00303012B05D03B685B6803F0030340
:100B5C00022B30D17B689B683B617B695B00032275
:100B6C0002FA03F3DB433A6913403B613B68DA68F2
:100B7C007B695B0002FA03F33A6913433B617B68C0
:100B8C003A699A607B685B683B6101227B6902FA77
:100B9C0003F3DB433A6913403B613B685B681B0919
:100BAC0003F001027B6902FA03F33A6913433B61D8
:100BBC007B683A695A603B685B6803F00303032B5C
:100BCC0017D07B68DB683B617B695B00032202FA10
:100BDC0003F3DB433A6913403B613B689A687B69DA
:100BEC005B0002FA03F33A6913433B617B683A6991
:100BFC00DA603B685B6803F00303022B23D17B694B
:100C0C00DA087B68083253F822303B617B6903F0C9
:100C1C0007039B000F2202FA03F3DB433A691340EC
:100C2C003B613B681A697B6903F007039B0002FA7E
:100C3C0003F33A6913433B617B69DA087B6808323A
:100C4C00396943F822107B681B683B617B695B0048
:100C5C00032202FA03F3DB433A6913403B613B681E
:100C6C005B6803F003027B695B0002FA03F33A69E9
:100C7C0013433B617B683A691A603B685B6803F419
:100C8C004033002B00F0A080584B1B6A574A43F0AE
:100C9C0001031362554B1B6A03F00103BB60BB6875
:100CAC00534A7B699B08023352F823303B617B69C2
:100CBC0003F003039B000F2202FA03F3DB433A69B0
:100CCC0013403B617B684B4A934219D07B684A4A7C
:100CDC00934213D07B68494A93420DD07B68484AB3
:100CEC00934207D07B68474A934201D1042308E022
:100CFC00052306E0032304E0022302E0012300E0C5
:100D0C0000237A6902F00302920093403A6913437C
:100D1C003B6137497B699B0802333A6941F82320D0
:100D2C00394B1B683B61FB68DB433A6913403B6101
:100D3C003B685B6803F48033002B03D03A69FB6893
:100D4C0013433B61304A3B6913602F4B5B683B613B
:100D5C00FB68DB433A6913403B613B685B6803F417
:100D6C000033002B03D03A69FB6813433B61264ADE
:100D7C003B695360244B9B683B61FB68DB433A69DE
:100D8C0013403B613B685B6803F48013002B03D07A
:100D9C003A69FB6813433B611B4A3B6993601A4BEE
:100DAC00DB683B61FB68DB433A6913403B613B68A2
:100DBC005B6803F40013002B03D03A69FB68134300
:100DCC003B61114A3B69D3607B6901337B613B68B2
:100DDC001A687B6922FA03F3002B7FF4A3AE00BFE1
:100DEC0000BF1C37BD4680BC704700BF00380240B6
:100DFC0000000140000002400004024000080240D4
:100E0C00000C0240001002400004014080B483B08A
:100E1C0000AF78600B467B8013467B707B78002B91
:100E2C0003D07A887B689A6103E07B881A047B681C
:100E3C009A6100BF0C37BD4680BC704780B588B046
:100E4C0000AF78607B68002B01D101231DE3944B2C
:100E5C009B6803F00C03BB61914B9B6803F48033DC
:100E6C007B617B681B6803F00103002B7BD0BB69A3
:100E7C00082B06D0BB690C2B0FD17B69B3F5803FD7
:100E8C000BD1874B1B6803F40033002B6AD07B68B3
:100E9C005B68002B66D10123F7E27B685B68012B52
:100EAC0006D17F4B1B687E4A43F4803313602DE0E0
:100EBC007B685B68002B0CD1794B1B68784A23F458
:100ECC0080331360764B1B68754A23F480231360C0
:100EDC001CE07B685B68052B0CD1714B1B68704A5E
:100EEC0043F4802313606E4B1B686D4A43F48033CC
:100EFC0013600BE06A4B1B68694A23F48033136060
:100F0C00674B1B68664A23F4802313607B685B681D
:100F1C00002B13D0FFF7EAFC386108E0FFF7E6FC82
:100F2C0002463B69D31A642B01D90323ADE25C4B17
:100F3C001B6803F40033002BF0D014E0FFF7D6FC51
:100F4C00386108E0FFF7D2FC02463B69D31A642BE8
:100F5C0001D9032399E2524B1B6803F40033002B95
:100F6C00F0D100E000BF7B681B6803F00203002B8C
:100F7C005AD0BB69042B05D0BB690C2B19D17B69EA
:100F8C00002B16D1464B1B6803F00203002B05D037
:100F9C007B68DB68012B01D0012376E2404B5B6858
:100FAC0023F4F8527B681B691B023D4913434B60C9
:100FBC003AE07B68DB68002B20D03A4B01221A60A8
:100FCC00FFF794FC386108E0FFF790FC02463B69A0
:100FDC00D31A022B01D9032357E2314B1B6803F0C0
:100FEC000203002BF0D02E4B5B6823F4F8527B6885
:100FFC001B691B022A4913434B6015E0294B002245
:10100C001A60FFF773FC386108E0FFF76FFC0246CB
:10101C003B69D31A022B01D9032336E2204B1B6800
:10102C0003F00203002BF0D17B681B6803F0100364
:10103C00002B00F0B880BB69002B70D1184B1B68DB
:10104C0003F40073002B05D07B689B69002B01D146
:10105C0001231AE27B681A6A114B5B6803F4604344
:10106C009A4221D97B681B6A184600F03BFC034668
:10107C00002B01D0012308E2094B5B6823F460428A
:10108C007B681B6A064913434B60054B5B6823F076
:10109C007F427B68DB691B06014913434B6020E0F0
:1010AC000038024000004742994B5B6823F46042D1
:1010BC007B681B6A964913434B60954B5B6823F026
:1010CC007F427B68DB691B06914913434B607B684D
:1010DC001B6A184600F006FC0346002B01D00123C6
:1010EC00D3E17B681B6A5B0B01334FF4004202FABD
:1010FC0003F3874A9268120902F00F0285498A5C51
:10110C00D340854A1360854B1B681846FFF7A2FB3A
:10111C000346FB73FB7B002B45D0FB7BB5E17B6867
:10112C009B69002B29D07E4B01221A60FFF7DEFB56
:10113C00386108E0FFF7DAFB02463B69D31A022B51
:10114C0001D90323A1E1724B1B6803F40073002B3C
:10115C00F0D06F4B5B6823F460427B681B6A6C4970
:10116C0013434B606A4B5B6823F07F427B68DB69FF
:10117C001B06674913434B6015E0694B00221A604C
:10118C00FFF7B4FB386108E0FFF7B0FB02463B69A0
:10119C00D31A022B01D9032377E15D4B1B6803F4AF
:1011AC000073002BF0D17B681B6803F00803002B45
:1011BC0030D07B685B69002B16D05A4B01221A6029
:1011CC00FFF794FB386108E0FFF790FB02463B69A0
:1011DC00D31A022B01D9032357E14D4B5B6B03F060
:1011EC000203002BF0D015E04E4B00221A60FFF7E3
:1011FC007DFB386108E0FFF779FB02463B69D31AA7
:10120C00022B01D9032340E1414B5B6B03F002033A
:10121C00002BF0D17B681B6803F00403002B00F05B
:10122C00B5800023FB773A4B5B6A03F08053002BAD
:10123C000DD1374B5B6A364A43F080535362344BC3
:10124C005B6A03F08053BB60BB680123FB77364BB2
:10125C001B6803F48073002B18D1334B1B68324A84
:10126C0043F480731360FFF741FB386108E0FFF72C
:10127C003DFB02463B69D31A642B01D9032304E1DD
:10128C00294B1B6803F48073002BF0D07B689B68A0
:10129C00012B06D11E4B5B6B1D4A43F480735363C9
:1012AC002DE07B689B68002B0CD1194B5B6B184AAB
:1012BC0023F480735363164B5B6B154A23F48063E2
:1012CC0053631CE07B689B68052B0CD1104B5B6B4C
:1012DC000F4A43F4806353630D4B5B6B0C4A43F42E
:1012EC00807353630BE00A4B5B6B094A23F48073E6
:1012FC005363074B5B6B064A23F4806353637B6831
:10130C009B68002B24D0FFF7F1FA386119E000BF7D
:10131C0000380240A4270008000000200400002030
:10132C00200047428006474200700040FFF7DEFA7B
:10133C0002463B69D31A41F28832934201D9032306
:10134C00A3E0544B5B6B03F40073002BEED014E062
:10135C00FFF7CCFA38610AE0FFF7C8FA02463B699E
:10136C00D31A41F28832934201D903238DE0494BC1
:10137C005B6B03F40073002BEED1FB7F012B05D1CB
:10138C00444B5B6A434A23F0805353627B685B6A2D
:10139C00002B79D0BB690C2B56D07B685B6A022B77
:1013AC003BD13D4B00221A60FFF7A0FA386108E0F0
:1013BC00FFF79CFA02463B69D31A022B01D903238F
:1013CC0063E0344B1B6803F00073002BF0D1314BFE
:1013DC009B6823F47D027B68996A7B68DB6A1943FE
:1013EC007B681B6B0B432B4913438B602A4B0122ED
:1013FC001A60FFF77BFA386108E0FFF777FA0246CC
:10140C003B69D31A022B01D903233EE0214B1B6805
:10141C0003F00073002BF0D036E01F4B00221A6053
:10142C00FFF764FA386108E0FFF760FA02463B699F
:10143C00D31A022B01D9032327E0164B1B6803F0A8
:10144C000073002BF0D11FE07B685B6A012B01D18C
:10145C0001231AE00F4B9B687B617B6903F480329C
:10146C007B689B6A9A420DD17B6903F470127B688E
:10147C00DB6A9A4206D17B6903F440027B681B6BE2
:10148C009A4201D0012300E0002318462037BD46C4
:10149C0080BD00BF003802406000474280B584B078
:1014AC0000AF786039607B68002B01D101231AE111
:1014BC008F4B1B6803F001033A689A4219D93B68B9
:1014CC00012B05D18A4B1B68894A43F00403136036
:1014DC00874B1B6823F0010285493B6813430B6063
:1014EC00834B1B6803F001033A689A4201D0012335
:1014FC00F9E07B681B6803F00203002B08D07D4BDE
:10150C009B6823F0F0027B689B687A4913438B60DD
:10151C007B681B6803F00103002B00F08E807B6856
:10152C005B68022B07D1734B1B6803F40033002B51
:10153C0021D10123D7E07B685B68032B07D16D4B6E
:10154C001B6803F00073002B15D10123CBE07B68E3
:10155C005B68012B07D1674B1B6803F00203002B60
:10156C0009D10123BFE0634B1B6803F40073002B0C
:10157C0001D10123B7E05F4B9B6823F003027B682A
:10158C005B685C4913438B60FFF7B0F9F8607B68CC
:10159C005B68022B12D10AE0FFF7A8F90246FB6840
:1015AC00D31A41F28832934201D903239BE0514B69
:1015BC009B6803F00C03082BEED13EE07B685B6864
:1015CC00032B12D10AE0FFF791F90246FB68D31AFC
:1015DC0041F28832934201D9032384E0454B9B6846
:1015EC0003F00C030C2BEED127E07B685B68012B1E
:1015FC001DD10AE0FFF77AF90246FB68D31A41F2D3
:10160C008832934201D903236DE03A4B9B6803F077
:10161C000C03042BEED110E0FFF768F90246FB68CF
:10162C00D31A41F28832934201D903235BE0314B48
:10163C009B6803F00C03002BEED12D4B1B6803F0C1
:10164C0001033A689A4219D23B68012B05D1284B09
:10165C001B68274A43F004031360254B1B6823F0D7
:10166C00010223493B6813430B60214B1B6803F0B9
:10167C0001033A689A4201D0012334E07B681B686D
:10168C0003F00403002B08D01A4B9B6823F4E06290
:10169C007B68DB68174913438B607B681B6803F01E
:1016AC000803002B09D0134B9B6823F460527B6812
:1016BC001B69DB000F4913438B6000F023F80246D3
:1016CC000C4B9B681B0903F00F030B49CB5C22FAF4
:1016DC0003F30A4A13600A4B1B681846FFF7BAF863
:1016EC000346FB72FB7A18461037BD4680BD00BF1F
:1016FC00003C024000380240A427000800000020F3
:10170C00040000202DE9B04F8EB000AF584B9B6801
:10171C00FB62FB6A03F00C030C2B0DD00C2B00F2BC
:10172C009280042B02D0082B03D08CE0514B3B63EE
:10173C0097E0514B3B6394E0FB6A9B0C03F00F0268
:10174C004E4B9B5CBB62FB6A9B0D03F003030133A6
:10175C007B62474B9B6803F48033002B21D0BB6A20
:10176C000022BB61FA61444BD7E906894A4603FB68
:10177C0002F20023444604FB03F313443E4A44465E
:10178C00A4FB02010B4419467B6A00223B617A617F
:10179C00D7E90423FEF7ECFC02460B4613467B63A9
:1017AC004EE0BB6A00229A46934652465B464FF087
:1017BC0000004FF00001590141EAD261500102468C
:1017CC000B46B2EB0A0863EB0B094FF000024FF02B
:1017DC0000034FEA891343EA98634FEA8812B2EB8D
:1017EC00080463EB09054FF000024FF00003EB0017
:1017FC0043EA5473E20014461D4614EB0A033B60A3
:10180C0045EB0B037B604FF000024FF00003D7E970
:10181C00004529468B0220462946044643EA945348
:10182C0001468A02104619467B6A0022BB60FA60A8
:10183C00D7E90223FEF79CFC02460B4613467B635A
:10184C007B6B3B630DE00A4B5B685B0B03F00703A0
:10185C003B623B6A01334FF4004202FA03F33B63F1
:10186C0000BF3B6B18463837BD46BDE8B08F00BF94
:10187C00003802400024F40000366E01982700085E
:10188C0080B400AF024B1B681846BD4680BC704745
:10189C000000002080B500AFFFF7F2FF0246054BB9
:1018AC009B681B0A03F007030349CB5C22FA03F382
:1018BC00184680BD00380240B427000880B500AF40
:1018CC00FFF7DEFF0246054B9B68DB0A03F00703BC
:1018DC000349CB5C22FA03F3184680BD0038024062
:1018EC00B427000880B487B000AF786000233B6158
:1018FC00294B9B6803F0F003002B2CD1264B5B6A21
:10190C0003F08053002B05D0244B1B6803F4C05309
:10191C007B6116E0204B5B6A1F4A43F08053536295
:10192C001D4B5B6A03F08053FB60FB681B4B1B6811
:10193C0003F4C0537B61184B5B6A174A23F0805346
:10194C0053627B69B3F5C05F05D17B68B3F5404F3B
:10195C0001D101233B613B69012B05D1104B1B6865
:10196C000F4A43F0040313600D4B1B6823F0010274
:10197C000B493B6913430B60094B1B6803F00103D4
:10198C003A699A4201D0012300E0002318461C3723
:10199C00BD4680BC704700BF00380240007000405C
:1019AC00003C024080B582B000AF78607B68002BB1
:1019BC0001D101233FE07B6893F83D30DBB2002B73
:1019CC0006D17B68002283F83C207868FEF782FE03
:1019DC007B68242283F83D207B681B68DA687B686F
:1019EC001B6822F40052DA60786800F005F97B6815
:1019FC001B681A697B681B6822F490421A617B6829
:101A0C001B685A697B681B6822F02A025A617B6842
:101A1C001B68DA687B681B6842F40052DA607B68EA
:101A2C0000221A647B68202283F83D207B682022E8
:101A3C0083F83E20002318460837BD4680BD80B58C
:101A4C008AB002AFF860B9603B601346FB8000239C
:101A5C007B61FB6893F83D30DBB2202B7CD1BB68FB
:101A6C00002B02D0FB88002B01D1012375E0FB6811
:101A7C0093F83C30012B01D102236EE0FB6801226C
:101A8C0083F83C20FB6800221A64FB68212283F84F
:101A9C003D20FEF72BFF7861FB68FA889A84FB687F
:101AAC00FA88DA84FB689B68B3F5805F08D1FB6821
:101ABC001B69002B04D10023FB61BB68BB6103E0F5
:101ACC00BB68FB610023BB61FB68002283F83C20F0
:101ADC002AE03B6800937B6900228021F86800F0C3
:101AEC0040F80346002B01D0032336E0FB69002BA2
:101AFC000BD1BB691B881A46FB681B68C2F3080232
:101B0C005A60BB690233BB6107E0FB691A78FB685A
:101B1C001B685A60FB690133FB61FB68DB8C9BB271
:101B2C00013B9AB2FB68DA84FB68DB8C9BB2002B1E
:101B3C00CFD13B6800937B6900224021F86800F00C
:101B4C0010F80346002B01D0032306E0FB6820228B
:101B5C0083F83D20002300E0022318462037BD46C1
:101B6C0080BD80B584B000AFF860B9603B601346AF
:101B7C00FB712CE0BB69B3F1FF3F28D0BB69002B94
:101B8C0007D0FEF7B3FE02463B68D31ABA699A42F5
:101B9C001DD2FB681B68DA68FB681B6822F4D072E4
:101BAC00DA60FB681B685A69FB681B6822F001024B
:101BBC005A61FB68202283F83D20FB68202283F8C1
:101BCC003E20FB68002283F83C2003230FE0FB68D7
:101BDC001B681A68BB681340BA689A420CBF012391
:101BEC000023DBB21A46FB799A42C3D00023184675
:101BFC001037BD4680BD000080B584B000AF786062
:101C0C007B681B681B6923F440517B68DA687B682E
:101C1C001B680A431A617B689A687B681B691A43C4
:101C2C007B685B691A437B68DB691343BB607B6829
:101C3C001B68DB6823F4164323F00C037A681268E4
:101C4C00B9680B43D3607B681B685B6923F44071F4
:101C5C007B689A697B681B680A435A617B681B68BE
:101C6C00554A934203D1FFF729FEF86002E0FFF7D3
:101C7C0011FEF8607B68DB69B3F5004F4CD1FA6854
:101C8C0013469B0013449A001A447B685B685B0004
:101C9C00B2FBF3F3494AA2FB03235B091901FA686F
:101CAC0013469B0013449A001A447B685B685B00E4
:101CBC00B2FBF3F2414BA3FB02035B09642000FB74
:101CCC0003F3D31ADB0032333C4AA2FB03235B0938
:101CDC005B0003F4F8731944FA6813469B00134431
:101CEC009A001A447B685B685B00B2FBF3F2334BDF
:101CFC00A3FB02035B09642000FB03F3D31ADB0094
:101D0C0032332E4AA2FB03235B0903F007027B68E4
:101D1C001B680A449A604AE0FA6813469B00134415
:101D2C009A001A447B685B689B00B2FBF3F3234A6E
:101D3C00A2FB03235B091901FA6813469B001344A9
:101D4C009A001A447B685B689B00B2FBF3F21B4B56
:101D5C00A3FB02035B09642000FB03F3D31A1B01F2
:101D6C003233164AA2FB03235B0903F0F003194438
:101D7C00FA6813469B0013449A001A447B685B680C
:101D8C009B00B2FBF3F20D4BA3FB02035B09642037
:101D9C0000FB03F3D31A1B013233084AA2FB0323C3
:101DAC005B0903F00F027B681B680A449A6000BF52
:101DBC001037BD4680BD00BF003801401F85EB5178
:101DCC000C480D490D4A002302E0D458C45004338A
:101DDC00C4188C42F9D30A4A0A4C002301E0136060
:101DEC000432A242FBD3FEF717FD00F015F8FEF704
:101DFC0043FB704700000020700000200028000802
:101E0C0070000020EC010020FEE70000014B186878
:101E1C00704700BF0C00002070B500260C4D0D4C17
:101E2C00641BA410A64209D100F09CFC00260A4DAC
:101E3C000A4C641BA410A64205D170BD55F8043B96
:101E4C0098470136EEE755F8043B98470136F2E720
:101E5C00F8270008F8270008F8270008FC270008D6
:101E6C0003460244934200D1704703F8011BF9E783
:101E7C000EB46FF0004100B59CB01DAB0290069003
:101E8C00079104910848094953F8042B05910068FF
:101E9C0002A9019300F068F80022029B1A701CB092
:101EAC005DF804EB03B070470C0000200802FFFF44
:101EBC002DE9F0478E6882469E420C4690461F469E
:101ECC0038D88A8912F4906F32D0256809690133A9
:101EDC00A5EB010965694B4405EB450505EBD5758B
:101EEC006D109D4238BF1D46530531D5294600F073
:101EFC006FFB064650B90C234FF0FF30CAF8003088
:101F0C00A38943F04003A381BDE8F0874A462169C9
:101F1C0000F0CEFAA38923F4906343F08003A381ED
:101F2C0026614E4426603E466561A5EB0905A56019
:101F3C00BE4200D93E4632464146206800F0C6FA01
:101F4C00A36800209B1BA360236833442360DBE75A
:101F5C002A4600F0B1FB06460028E1D15046216923
:101F6C0000F0CEFAC7E700002DE9F04F98468B89B8
:101F7C0007461B060D4614469DB00ED50B6963B97A
:101F8C00402100F025FB2860286120B90C233B6020
:101F9C004FF0FF30D1E040236B61002309932023E5
:101FAC008DF8293030234FF00109CDF80C80DFF883
:101FBC00A4818DF82A3023469A4613F8012B0AB1D6
:101FCC00252AF9D1BAEB040B0BD05B4622462946E5
:101FDC003846FFF76DFF013000F0AA80099A5A4489
:101FEC0009929AF80030002B00F0A28000234FF0E9
:101FFC00FF32CDE905230AF1010A049307938DF80A
:10200C0053301A935446052214F8011B514800F022
:10201C0041FA049AD8B9D00644BF20238DF8533026
:10202C00110744BF2B238DF853309AF800302A2B1C
:10203C0015D0544600204FF00A0C079A214611F88F
:10204C00013B303B092B4ED9B0B1079214E0A0EB09
:10205C00080309FA03F31343A2460493D2E7039B44
:10206C00191D1B680391002BBBBF5B4242F002029F
:10207C0007930793B8BF049223782E2B0CD1637867
:10208C002A2B35D1039B02341A1D1B680392002B9B
:10209C00B8BF4FF0FF330593DFF8BCA003225046C6
:1020AC00217800F0F7F940B14023A0EB0A0003FAC5
:1020BC0000F0049B01340343049314F8011B062223
:1020CC0026488DF8281000F0E5F9002838D0244B6C
:1020DC001BBB039B073323F0070308330393099BB4
:1020EC003344099367E70C4601200CFB0232A5E749
:1020FC0000234FF00A0C194601340593204610F8C2
:10210C00012B303A092A03D9002BC5D00591C3E71E
:10211C00044601230CFB0121F0E703AB00932A4694
:10212C003846104B04A9AFF30080421C0646D6D1AA
:10213C00AB895B063FF52CAF09981DB0BDE8F08F5D
:10214C0003AB00932A463846064B04A900F07CF8F2
:10215C00EBE700BFBC270008C2270008C627000811
:10216C0000000000BD1E00082DE9F04716469946F8
:10217C008A680B6907469342B8BF1346336091F8DF
:10218C0043200C46DDF820800AB10133336023680C
:10219C00990642BF336802333360256815F0060593
:1021AC0006D104F1190AE36832689B1AAB4228DCA9
:1021BC0094F84320131E226818BF012392062DD4D5
:1021CC004946384604F14302C047013020D0236809
:1021DC00E56803F00603042B18BF002532684FF0A6
:1021EC000006A36808BFAD1A226908BF25EAE57589
:1021FC009342C4BF9B1AED181A34B5421AD1002071
:10220C0008E00123524649463846C047013003D105
:10221C004FF0FF30BDE8F0870135C4E73020E118FE
:10222C0081F843005A1C94F845102244023382F87A
:10223C004310C5E70123224649463846C0470130C2
:10224C00E6D00136D9E700002DE9FF470F7E914615
:10225C00782F80460C469A460C9D01F1430207D814
:10226C00622F0AD8002F00F0D980582F00F0A480DC
:10227C0004F1420584F842703AE0A7F16303152B90
:10228C00F6D801A151F823F0ED2200080123000833
:10229C007D2200087D2200087D2200087D22000896
:1022AC00012300087D2200087D2200087D22000801
:1022BC007D2200080F24000831230008F1230008B8
:1022CC007D2200087D220008312400087D220008B0
:1022DC00312300087D2200087D220008F923000824
:1022EC002B681A1D1B682A6004F1420584F84230E1
:1022FC000123A4E020682968060601F104030AD52D
:10230C000E682B60002E03DA2D23764284F84330BE
:10231C000A235E4819E00E6810F0400F2B6018BFBE
:10232C0036B2EFE72B682068191D2960010601D52C
:10233C001E6802E04606FBD51E886F2F0CBF0823D3
:10234C000A235248002184F843106568002DA8BF69
:10235C002168A560A4BF21F0040121600EB9002DF5
:10236C004DD01546B6FBF3F103FB1167C75D05F8BD
:10237C00017D3746BB420E46F4D9082B0BD123689E
:10238C00DE0708D5236961689942DEBF302305F862
:10239C00013C05F1FF35521B22614B46214640465C
:1023AC00CDF800A003AAFFF7DFFE01304CD14FF0AF
:1023BC00FF3004B0BDE8F087344881F845702968D7
:1023CC00236851F8046B29601D0614D5DF0744BF40
:1023DC0043F0200323601EB9236823F020032360FD
:1023EC001023AFE7236843F02003236078232848A9
:1023FC0084F84530E3E7590648BFB6B2E6E7154620
:10240C00BBE72B682668181D6169286035061B68B8
:10241C0001D5196002E07006FBD519800023154622
:10242C002361BAE72B6800211A1D2A601D686268B7
:10243C00284600F02FF808B1401B606063682361E8
:10244C00002384F84330A8E72A46494640462369CE
:10245C00D0470130ABD023689B0713D4E068039BB3
:10246C009842B8BF1846A4E7012332464946404675
:10247C00D04701309BD00135E36803995B1AAB421E
:10248C00F2DCEBE7002504F11906F5E7CD2700088F
:10249C00DE270008034610B5C9B202449342184621
:1024AC0001D1002003E0047801338C42F6D110BD39
:1024BC000A44914200F1FF3300D1704710B511F876
:1024CC00014B914203F8014FF9D110BD884210B570
:1024DC0001EB020402D98442234607D8431EA142D1
:1024EC0008D011F8012B03F8012FF8E7014602443C
:1024FC008A4200D110BD13F8014D02F8014DF7E7E7
:10250C0038B50546002940D051F8043C0C1F002B6F
:10251C00B8BFE41800F010F91C4A136833B96360B3
:10252C0014602846BDE8384000F00CB9A34208D925
:10253C00206821188B4201BF19685B68091821605B
:10254C00EDE71A465B680BB1A342FAD91168501833
:10255C00A0420BD120680144501883421160E0D195
:10256C0018685B68014411605360DAE702D90C23E8
:10257C002B60D6E7206821188B4201BF19685B6875
:10258C000918216063605460CBE738BDDC01002082
:10259C0070B50E4E0C463168054611B900F0BCF80A
:1025AC0030602146284600F0B7F8431C0AD0C41C02
:1025BC0024F00304A04207D0211A284600F0ACF8FE
:1025CC00013001D14FF0FF34204670BDE0010020F6
:1025DC002DE9F041CD1C25F0030508350C2D38BF35
:1025EC000C25002D074601DBA94205D90C2300263A
:1025FC003B603046BDE8F0812E4E00F09DF833680C
:10260C001C4634BB29463846FFF7C2FF431C044620
:10261C004DD134682646002E40D1236831463846C9
:10262C0004EB030800F078F880453AD121680335B3
:10263C006D1A25F0030508350C2D38BF0C253846CE
:10264C002946FFF7A5FF01302BD023682B442360CC
:10265C000EE02268521B1ED40B2A16D96119A34214
:10266C00256018BF5960636808BF316062514B60C8
:10267C00384604F10B0600F065F826F00706231D1A
:10268C00F21AB6D09B1BA350B3E76268A3420CBFEF
:10269C0032605A60ECE723466468B2E734467668E9
:1026AC00B9E70C2338463B6000F04CF8A1E72560F5
:1026BC00DEE700BFDC0100202DE9F0418046144626
:1026CC000E4621B91146BDE8F041FFF781BF2AB98A
:1026DC00FFF716FF25462846BDE8F08100F038F8D4
:1026EC008442074602D8B4EB500F12D8214640461C
:1026FC00FFF76EFF05460028EDD0BC42224631465E
:10270C0028BF3A46FFF7D4FE31464046FFF7F8FEA5
:10271C00E1E73546DFE7000038B50023054D0446F8
:10272C0008462B60FEF742F8431C02D12B6803B11C
:10273C00236038BDE4010020014800F011B800BF4F
:10274C00E8010020014800F00CB800BFE8010020AF
:10275C0051F8043C181F002BBCBF0B58C018704715
:10276C0070477047F8B500BFF8BC08BC9E46704770
:0C277C00F8B500BFF8BC08BC9E467047D2
:10278800436F756E746572203D20256C640D0A00D8
:10279800030406080C101820300000000000000098
:1027A80000000000010203040607080900000000F9
:1027B80001020304232D302B2000686C4C00656651
:1027C800674546470030313233343536373839417A
:1027D8004243444546003031323334353637383990
:0827E800616263646566000094
:0827F000BCD9FF7F01000000CD
:0427F8006101000873
:0427FC003D01000893
:1028000068FF1F0010000000010000001000002001
:1028100000000000000000000000000000000000B8
:1028200000000000000000000000000000000000A8
:102830000000000000000000000000000000000098
:102840000000000000000000000000000000000088
:102850000000000000000000000000000000000078
:102860000000000000000000000000000000000068
:0400000508001DCD05
:00000001FF
