:100000006F10400D130000001300000013000000EB
:100010001300000013000000130000001300000094
:100020001300000013000000130000001300000084
:08003000130000007300100032
:100038000000000000000000681000006A100000C6
:10004800000000006C10000000000000000000002C
:100058006E1000007010000000000000000000009A
:1000680040010000000000007410000000000000C3
:1000780076100000781000007A1000007C10000054
:100088007E10000080100000300C0000841000007A
:1000980086100000881000008A1000008C0C0000F8
:1000A8008E100000901000009210000094100000C4
:1000B8009610000098100000600C00009C100000D2
:1000C8009E100000A0100000A2100000A410000064
:1000D800A6100000A8100000AA100000AC10000034
:1000E800AE100000CC030000B2100000B4100000F5
:1000F800B6100000B8100000BA100000BC100000D4
:10010800BE1000009E010000700200001E030000E7
:10011800C6100000C8100000CA100000CC10000073
:10012800CE100000D0100000D21000000000000027
:080138000000000000000000BF
:10014000411122C63AC43EC20008B7F700E0D843C6
:10015000B7F700E0799BD8C3B707002083A78700D3
:1001600013871700B707002023A4E70083A7C180E7
:1001700099C783A7C1801387F7FF23A6E18083A7D0
:10018000018199C783A701811387F7FF23A8E18025
:10019000010032442247924741017300203041114F
:1001A00022C636C43AC23EC00008B7470140938712
:1001B00007809E23C207C18393F70702A5C7B7072D
:1001C000002093874701DA2BCD4763E7E704B74761
:1001D000014093870780DE23139707014183B70708
:1001E000002093874701DE2BBE861377F70FB707F2
:1001F000002093874701B69798A3B70700209387FD
:100200004701DE2B8507139707014183B7070020BD
:1002100093874701DAAB39A0B707002093874701DE
:10022000239A0700B7470140938707809E23C207A0
:10023000C183C18B95C7B747014093870780DE23F1
:10024000B707002093874701DA2BB7070020938771
:100250004701FAABB707002093874701239A0700AD
:1002600001003244A2461247824741017300203008
:10027000411122C636C43AC23EC00008B74700400A
:10028000938707409E23C207C18393F70702A1CB40
:100290009387C182DA2BCD4763EFE702B74700406F
:1002A00093870740DE231397070141839387C18219
:1002B000DE2BBE861377F70F9387C182B69798A37C
:1002C0009387C182DE2B85071397070141839387AC
:1002D000C182DAAB29A09387C182239A0700B7476E
:1002E0000040938707409E23C207C183C18B85C30B
:1002F000B747004093870740DE239387C182DA2BFC
:100300009387C182FAAB9387C182239A07000100C9
:100310003244A24612478247410173002030411106
:1003200022C636C43AC23EC00008B7570040938781
:1003300007809E23C207C18393F70702A1CB93874F
:100340004184DA2BCD4763EFE702B757004093872C
:100350000780DE2313970701418393874184DE2BB7
:10036000BE861377F70F93874184B69798A3938738
:100370004184DE2B850713970701418393874184CE
:10038000DAAB29A093874184239A0700B75700402E
:10039000938707809E23C207C183C18B85C3B7574C
:1003A000004093870780DE2393874184DA2B93876D
:1003B0004184FAAB93874184239A070001003244B9
:1003C000A24612478247410173002030411122C6E4
:1003D0003AC43EC20008B7070040938707409E2BEF
:1003E000C207C183858B8DC3B70700409387074041
:1003F0009E2B139707014183B7070040938707405F
:10040000799B420741839AAB0100324422479247CD
:10041000410173002030011122CE00102326A4FEDA
:100420008327C4FEFD8B0547B316F70037E700E0CE
:100430008327C4FE9583938707048A07BA9794C3DA
:100440000100724405618280011122CE0010232632
:10045000A4FEAE87A305F4FE0347B4FE9D4763F5F3
:10046000E7009D47A305F4FEB7E600E08347B4FE2E
:10047000960713F7F70F8327C4FEB6972380E7404C
:100480000100724405618280411122C60008B7173D
:100490000240984FB71702401367470098CFB7172D
:1004A0000240984FB71702401367170098CFB7075D
:1004B0000140D443B7070140370700F97D17758F16
:1004C000D8C3B717014093870780596798CFB717EC
:1004D000014093870780196798CFB717014093872A
:1004E0000780596798CFB7170140938707809C4FC3
:1004F0000100324441018280411122C60008B71731
:1005000002409843B71702401367170098C30100D1
:10051000B71702409C43898BE5DFB717024094432D
:10052000B71702403707FCFF7D17758F98C3B717C1
:1005300002409443B71702404167558F98C30100AA
:10054000B71702409843B7070200F98FF5DBB717DA
:1005500002409443B717024037070800558F98C3ED
:10056000B7170240DC4313F7C7FFB7170240136702
:100570001700D8C3B71702409443B7170240370794
:1005800000FF7D17758F98C3B7170240DC4313F740
:10059000F7F0B717024013670708D8C3B727024020
:1005A000944BB7270240370700FE7D17758F98CB15
:1005B000B7170240DC4313F7F78FB71702401367F2
:1005C0000740D8C3B7170240D443B717024071772A
:1005D0001307F77F758FD8C3B7170240D843D17779
:1005E000FD17B376F700B71702402167558FD8C3C0
:1005F000B7170240D443B717024001777D17758FB4
:10060000D8C3B7170240D443B71702404167558F8C
:10061000D8C3B7170240D443B717024037073C008E
:10062000558FD8C3B7170240D843B70740FFFD170F
:10063000B376F700B717024037078000558FD8C34D
:10064000B7170240D843B70700F9FD17B376F70094
:10065000B717024037070006558FD8C3B7170240B7
:100660009443B717024037070001558F98C3B71757
:100670000240DC4313F7C7FFB71702401367270098
:10068000D8C30100B71702409843B7070002F98F9B
:10069000F5DB01000100324441018280411106C6B0
:1006A00022C40008B7F700E09843B7F700E0799B51
:1006B00098C3B7F700E09843B7F700E01367270047
:1006C00098C3B7F700E09843B7F700E06D9B98C375
:1006D000B7F700E09843B7F700E01367870098C3C7
:1006E000B7F700E09843B7F700E01367070198C336
:1006F000B7F700E09843B7F700E01367070298C325
:10070000B7F600E0096713077732814798CADCCA59
:10071000314511339D453145053BB7F700E098431E
:10072000B7F700E01367170098C30100B2402244F6
:1007300041018280011122CE00102326A4FE03274E
:10074000C4FE23A6E180010083A7C180F5FF01005C
:100750000100724405618280797122D60018232E2F
:10076000A4FCAE873687A30DF4FCB287230DF4FCFE
:10077000BA87A30CF4FCA30704FE8347A4FD89C732
:100780000547638EE702A5A88347B4FD8A07A30740
:10079000F4FE8327C4FD98438347F4FE8D46B39748
:1007A000F60093C7F7FFF98F834694FD0347F4FEE5
:1007B0003397E6005D8F8327C4FD98C389A08347E4
:1007C000B4FDE117A30DF4FC8347B4FD8A07A3072A
:1007D000F4FE8327C4FDD8438347F4FE8D46B397C8
:1007E000F60093C7F7FFF98F834694FD0347F4FEA5
:1007F0003397E6005D8F8327C4FDD8C30100010055
:10080000325445618280797106D622D40018232E95
:10081000A4FCAE873287A30DF4FCBA87230DF4FC49
:10082000A30704FE0347B4FD9D4763E5E700A30764
:1008300004FE21A08547A307F4FE8347A4FD81EFB2
:100840000347F4FE8347B4FD81463A86BE850325FF
:10085000C4FD193785A00347A4FD8547631DF70034
:100860000347F4FE8347B4FD85463A86BE850325DB
:10087000C4FDDD3581A00347A4FD8947631DF70052
:100880000347F4FE8347B4FD89463A86BE850325B7
:10089000C4FDD93505A00347A4FD8D47631CF700AF
:1008A0000347F4FE8347B4FD8D463A86BE85032593
:1008B000C4FD5D350100B2502254456182800111B2
:1008C00022CE00102326A4FEAE8732872322D4FE38
:1008D000A305F4FEBA872305F4FE8347B4FE89C757
:1008E0000547638DE7029DA08327C4FE98438327B5
:1008F00044FE9C23BE868D47B397D70093C7F7FF6E
:10090000F98F0347A4FE832644FE94223317D700B1
:100910005D8F8327C4FE98C301000DA88327C4FE02
:10092000D843832744FE9C23BE868D47B397D700C8
:1009300093C7F7FFF98F0347A4FE832644FE942252
:100940003317D7005D8F8327C4FED8C301007244DC
:1009500005618280011106CE22CC00102326A4FE60
:100960002324B4FE2320F4FEB287A303F4FEB6874B
:100970002303F4FEBA87A302F4FE834774FE0947FB
:100980006386E70809476343F71489C7054763810E
:10099000E7042DAA834764FE89C70547638EE700F5
:1009A00035A2032704FE834754FEBA860146BE855E
:1009B0000325C4FE293721A8032704FE834754FEDC
:1009C000BA860546BE850325C4FED53D0100FDA8B7
:1009D000834764FE89C70547638EE700C5A80327E0
:1009E00004FE834754FEBA860946BE850325C4FE2D
:1009F000F93521A8032704FE834754FEBA860D4625
:100A0000BE850325C4FE653D0100C9A0834764FE81
:100A100015476383E70815476349F70A114763825F
:100A2000E70411476343F70A09476386E7000D4768
:100A3000638EE70059A8032704FE834754FEBA8655
:100A40000146BE850325C4FE9D3D41A0032704FE4B
:100A5000834754FEBA860546BE850325C4FE853508
:100A6000ADA0032704FE834754FEBA860946BE851F
:100A70000325C4FEA9358327C4FED847832784FEF7
:100A80009C23BE868547B397D70093C7F7FF7D8F1A
:100A90008327C4FED8C715A8032704FE834754FE46
:100AA000BA860946BE850325C4FE113D8327C4FED0
:100AB000D847832784FE9C23BE868547B397D700FB
:100AC0005D8F8327C4FED8C7010001000100F240FA
:100AD000624405618280797106D622D40018232EE3
:100AE000A4FCAE87A30DF4FCB287230DF4FCB687FB
:100AF000A30CF4FCBA87230CF4FCA30704FE032721
:100B0000C4FDB717014093870780631BF700B71731
:100B10000240984FB71702401367470098CF51A083
:100B20000327C4FDB7170140938707C0631BF70075
:100B3000B7170240984FB71702401367870098CF46
:100B40008DA00327C4FDB7170140631BF700B7173B
:100B50000240984FB71702401367070198CF91A042
:100B60000327C4FDB717014093870740631BF700B5
:100B7000B7170240984FB71702401367070298CF84
:100B80000DA00327C4FDB727014093870780631A90
:100B9000F700B7170240984FB717024013670704D2
:100BA00098CF8347B4FD034784FD3A86BE8503256D
:100BB000C4FD91390347B4FD9D4763E9E7028347CC
:100BC000B4FD8A0793F7F70F890793F7F70FA30789
:100BD000F4FE9307F4FE834694FD0346A4FD9305BB
:100BE000B4FD01470325C4FDB53335A88347B4FDE3
:100BF000E11793F7F70FA30DF4FC8347B4FD8A07C1
:100C000093F7F70F890793F7F70FA307F4FE9307FE
:100C1000F4FE834694FD0346A4FD9305B4FD054709
:100C20000325C4FD053B0100B2502254456182807A
:100C3000411122C63AC43EC20008B707014093875B
:100C40000740D84BB7070140938707401367170049
:100C5000D8CB010032442247924741017300203033
:100C6000411122C63EC40008B727014093870740C0
:100C70009C43898B91C7B727014093870740DC5F6E
:100C800001003244A247410173002030411122C6C5
:100C90003AC43EC20008B70702409C43898B91CBFF
:100CA000B7070240D843B707024013671700D8C3FD
:100CB00031A8B70702409C43A18B89CBB7070240FC
:100CC000D843B707024013671700D8C30100324466
:100CD00022479247410173002030411106C622C4C9
:100CE0000008B7170240984FB717024013678700F4
:100CF00098CFB7170240984FB717024013671700F5
:100D000098CFB7170140938707C0D843FD779387E3
:100D1000F73FB376F700B7170140938707C0056721
:100D200013070780558FD8C3B7170140938707C0B3
:100D3000D843B7170140938707C013670730D8C35C
:100D4000B7170140938707C0D843D177FD17B37613
:100D5000F700B7170140938707C01167558FD8C3B5
:100D6000B7170140938707C0D443B7170140938753
:100D700007C075777D17758FD8C3B7170240D44F5A
:100D8000B717024037070400558FD8CFB757004038
:100D9000938707809E27C207C183C207C187BD8B87
:100DA000C207C18793E70713139707014187B75716
:100DB000004093870780420741839AA7B7570040B6
:100DC000938707809E27C207C183C207C187C19B43
:100DD000C207C18793E78700139707014187B75779
:100DE000004093870780420741839AA7B757004086
:100DF00093870780DE2793960701C182B75700408B
:100E0000938707800967558F42074183DAA7B75751
:100E1000004093870780DE2793960701C182B7576A
:100E20000040938707807D777D17758F4207418348
:100E3000DAA7B757004093870780DE27939607010C
:100E4000C182B7570040938707807D771307F77FEC
:100E5000758F42074183DAA7B75700409387078011
:100E6000DE27139707014183B75700409387078018
:100E70001377F7BF42074183DAA7B757004093873C
:100E80000780DE27139707014183B75700409387F8
:100E900007801377F7EF42074183DAA7B75700407F
:100EA00093870780DE27139707014183B7570040D8
:100EB000938707801377F7F742074183DAA7B7577D
:100EC000004093870780DE27139707014183B757B8
:100ED0000040938707801377F7FB42074183DAA727
:100EE000B757004093870780DE2713970701418398
:100EF000B757004093870780136707024207418373
:100F0000DAA7B757004093870780DE2713970701BA
:100F10004183B75700409387078013670701420753
:100F20004183DAA7B757004093870780DE271397DE
:100F300007014183B75700409387078013678700F5
:100F400042074183DAA7B757004093870780DE271F
:100F5000139707014183B7570040938707801367B2
:100F6000470042074183DAA7B757004093870780BD
:100F7000DE27139707014183B75700409387078007
:100F8000759B42074183DAA7B757004093870780D4
:100F9000DE27139707014183B757004093870780E7
:100FA000799B42074183DAA7B757004093870780B0
:100FB00023980700B7570040938707809E2B93968E
:100FC0000701C182B75700409387078075777D1767
:100FD000758F420741839AABB757004093870780CC
:100FE000239A0700B757004093870780239C070088
:100FF00013057003EFF02FC2914513057003EFF056
:10100000AFC40100B240224441018280411106C6B2
:1010100022C40008EFF04FC7EFF00FCEEFF00FE85B
:101020006D390D4781460146B54537150140653498
:10103000B7170140096798CB13054006EFF08FEF13
:10104000B71701403707002098CB13054006EFF093
:101050006FEEB707002083A7070013871700B707B5
:10106000002023A0E700E9B701A001A001A001A092
:1010700001A001A001A001A001A001A001A001A068
:1010800001A001A001A001A001A001A001A001A058
:1010900001A001A001A001A001A001A001A001A048
:1010A00001A001A001A001A001A001A001A001A038
:1010B00001A001A001A001A001A001A001A001A028
:1010C00001A001A001A001A001A001A001A001A018
:1010D00001A001A097F1FF1F9381C1721741002069
:1010E000130141F2170500001305450797F5FF1F8F
:1010F000938545F11386818063FAC500832205003C
:1011000023A0550011059105E3EAC5FE13858180F2
:101110009385C1856377B500232005001105E36D34
:10112000B5FEFD42739002BC8D42739042809302E3
:10113000800873A0023097F2FFFF938222F093E2BF
:1011400032007390523097020000938262EC7390E9
:0811500012347300203000008E
:081158000C0000000000000083
:00000001FF
