:020000040800F2
:1000000000500020F50B00083D0C00083D0C0008D6
:100010003D0C00083D0C00083D0C000800000000ED
:100020000000000000000000000000003D0C00087F
:100030003D0C0008000000003D0C0008D10A00083B
:100040003D0C00083D0C00083D0C00083D0C00086C
:100050003D0C00083D0C0008710700083D0C00082D
:100060003D0C00083D0C00083D0C0008FD07000891
:100070003D0C00083D0C00083D0C00083D0C00083C
:100080003D0C00083D0C0008DD0700083D0C000891
:100090003D0C00083D0C00083D0C00083D0C00081C
:1000A0003D0C0008B50700083D0C00083D0C000899
:1000B0003D0C00088D0700083D0C00083D0C0008B1
:1000C0003D0C00083D0C00083D0C00083D0C0008EC
:1000D0003D0C000895090008F10900083D0C0008D6
:1000E0003D0C00083D0C00083D0C0008000000001D
:1000F0000000000000000000000000000000000000
:0C01000000000000000000005FF808F1A3
:10010C0010B5054C237833B9044B13B10448AFF345
:10011C0000800123237010BD54000020000000005B
:10012C009015000808B5034B1BB103490348AFF306
:10013C00008008BD00000000580000209015000849
:10014C00034613F8012B002AFBD1181A013870470B
:10015C0080B582B002AF00F04DF800F079F800F0F5
:10016C000DF900F067FB03230093002300220D21FF
:10017C000D4800F06FFA0D4B1B6801330B4A1360EE
:10018C000A4B1B681A460A490A4800F053FD0948F5
:10019C00FFF7D6FF03469AB264230649064800F0DF
:1001AC004FFC00BFE7E700BF0010014070000020CB
:1001BC00A8150008740000200038014080B483B0FA
:1001CC0000AF0346FB7197F90730002B0BDBFB7973
:1001DC0003F01F02064997F907305B09012000FA6A
:1001EC0002F241F8232000BF0C37BD4680BC70479B
:1001FC0000E100E080B400AF124B9B69114A43F060
:10020C00040393610F4B9B690E4A43F00103936106
:10021C000D4B5B6823F0E0630B4A43F000735360B3
:10022C000A4B4FF4B0329A61084B4FF4C0429A61BA
:10023C00064B4FF4B0329A61044B9B6900BFBD462C
:10024C0080BC7047001002400000014000080140D3
:10025C0080B400AF474B1B68464A43F00103136060
:10026C0000BF444B1B6803F00203002BF9D0414B39
:10027C001B68404A23F4802313603E4B1B683D4AA5
:10028C0043F48033136000BF3A4B1B6803F4003314
:10029C00002BF9D0374B1B68364A43F4002313600C
:1002AC00344B5B6823F00303324A43F00103536081
:1002BC00304B5B682F4A23F0F00353602E4B1B68C6
:1002CC0023F007032C4A43F0020313602A4B1B68EC
:1002DC00294A43F010031360264B5B6823F4E06358
:1002EC00244A43F480635360224B5B68214A23F415
:1002FC00605353601F4B5B6823F440431D4A43F427
:10030C00004353601B4B5B681A4A43F480335360C1
:10031C00184B184A5B685360164B5B6823F47013D8
:10032C00144A43F4E0135360124B5B68114A23F4F4
:10033C00800353600F4B5B680E4A23F0E0635360FD
:10034C000C4B1B680B4A43F080731360094B5B68C2
:10035C0023F00303074A43F00203536000BF054B2D
:10036C001B6803F00073002BF9D000BF00BFBD4623
:10037C0080BC7047001002400020024080B400AFE7
:10038C00154B1B68144A23F001031360124B1B68B6
:10039C00114A43F0020313600F4B1B680E4A43F0E3
:1003AC00040313600C4B5B6803F07F420A490B4B50
:1003BC0013434B60084B9B6803F07F420649074B85
:1003CC0013438B60044B1B68034A43F00103136017
:1003DC0000BFBD4680BC704710E000E03F19010033
:1003EC0080B485B000AF7860084611461A460346C3
:1003FC00FB700B46BB7013467B700023FB73BB7802
:10040C00002B02D0012B13D028E0FB789B00FB7350
:10041C007B681A68FB7B032101FA03F3DB4313406F
:10042C007978FA7B01FA02F21A437B681A6015E0BC
:10043C00FB78083BFB70FB789B00FB737B685A686E
:10044C00FB7B032101FA03F3DB4313407978FA7B3E
:10045C0001FA02F21A437B685A6000BF00BF1437DE
:10046C00BD4680BC704780B584B000AF78600B4649
:10047C00FB701346BB700023FB73FB78072B02D871
:10048C000023FB7301E00123FB73BB78002B06D127
:10049C00FA7BF97800237868FFF7A2FF1CE0BB78A1
:1004AC00012B06D1FA7BF97801237868FFF798FFC6
:1004BC0012E0BB78022B06D1FA7BF978022378681C
:1004CC00FFF78EFF08E0BB78032B05D1FA7BF97898
:1004DC0003237868FFF784FF00BF1037BD4680BD4B
:1004EC0080B485B000AFF8607B600B46FB7213469E
:1004FC00BB72FB7A002B02D0012B12D021E0FB68DF
:10050C001A687B681B78194603238B40DB43134026
:10051C00BA7A796809788A401A43FB681A6000BF76
:10052C000FE0FB685A687B681B78194603238B40E5
:10053C00DB431340BA7A796809788A401A43FB681E
:10054C005A6000BF1437BD4680BC704780B584B07C
:10055C0000AFF860B96011461A460B46FB711346A2
:10056C00BB71FB79022B30D0022B6FDC002B02D03D
:10057C00012B15D06AE0BB79002B02D0012B07D0E0
:10058C0064E0FB69397E0022F868FFF7A9FF06E0FA
:10059C00FB69397E0122F868FFF7A2FF00BF55E026
:1005AC00BB79002B02D0012B07D04FE0FB69397EC1
:1005BC000222F868FFF794FF06E0FB69397E0322FC
:1005CC00F868FFF78DFF00BF40E0BB79023B032BBF
:1005DC003BD801A252F823F0F505000803060008E9
:1005EC001106000835060008FB69397E0022F86800
:1005FC00FFF776FF29E0FB69397E0122F868FFF7E7
:10060C006FFF22E0FB69397E0222F868FFF768FF72
:10061C00FB68DA68BB681B78194601238B40DB4307
:10062C001A40FB68DA6010E0FB69397E0222F86838
:10063C00FFF756FFFB68DA68BB681B781946012385
:10064C008B401A43FB68DA6000BF00BF00BF103755
:10065C00BD4680BD80B586B002AF786008461146B5
:10066C001A460346FB700B46BB7013467B70002387
:10067C00FB737B68354A934206D1354B9B69344AF0
:10068C0043F0040393612AE07B68324A934206D11B
:10069C002F4B9B692E4A43F0080393611FE07B6844
:1006AC002D4A934206D12A4B9B69294A43F01003E9
:1006BC00936114E07B68294A934206D1244B9B69D1
:1006CC00234A43F02003936109E07B68244A934258
:1006DC0005D11F4B9B691E4A43F040039361FB7885
:1006EC003A7E19467868FFF7BEFEFB78072B12D8C6
:1006FC00FB789B00DBB20233DBB2FB737878BA7801
:10070C00F91C07F10F03019300230093034678684B
:10071C00FFF71CFF15E0FB78083BDBB2FB70FB78A6
:10072C009B00DBB20233DBB2FB737878BA78F91C2E
:10073C0007F10F0301930123009303467868FFF739
:10074C0005FF00BF1037BD4680BD00BF000801404B
:10075C0000100240000C0140001001400014014048
:10076C000018014080B400AF044B5B69034A43F0AE
:10077C000103536100BFBD4680BC704700040140BB
:10078C0080B400AF074B1B6903F00103002B05D0AD
:10079C00044B1B69034A23F00103136100BFBD46E0
:1007AC0080BC70470004004080B400AF074B1B694D
:1007BC0003F00103002B05D0044B1B69034A23F003
:1007CC000103136100BFBD4680BC7047002C014083
:1007DC0080B400AF054B1B6803F00203002B01D063
:1007EC00024BDB6C00BFBD4680BC7047002401404F
:1007FC0080B400AF0E4B1B6803F00203002B06D035
:10080C000B4B5B680A4A43F0010353600BE0084B47
:10081C001B6803F00803002B05D0054B5B68044AEA
:10082C0043F00103536000BFBD4680BC704700BF5E
:10083C000000024080B500AF504B9B694F4A43F01B
:10084C00040393614D4B9B694C4A43F00103936144
:10085C004B4B5B6823F0C003494A43F08003536061
:10086C00474B5B68464A43F030035360444B5B682C
:10087C0023F44063424A43F480635360404B5B680B
:10088C003F4A23F4407353603C4B9B693B4A43F40F
:10089C00804393613B4B9B6823F47F4323F0F0032D
:1008AC00384A43F41C739360364B9B6823F00F0358
:1008BC00344A43F001039360324BDB68314A43F412
:1008CC000053D3602F4BDB682E4A23F48053D36044
:1008DC002C4BDB682B4A23F40063D360294BDB6879
:1008EC00284A23F48063D360264BDB68254A23F423
:1008FC008073D360234BDB68224A23F08003D360E0
:10090C00204BDB681F4A23F04003D3601D4BDB6890
:10091C001C4A43F02003D3601A4BDB68194A43F09E
:10092C001003D360174BDB68164A43F00803D360FF
:10093C00144BDB68134A43F00403D360114BDB68A0
:10094C00104A23F00203D3600E4BDB680D4A23F0F0
:10095C000103D3600B4B00221A610A4B1B69094A35
:10096C0023F440531361074B00225A61054B0022BC
:10097C009A612520FFF722FC00BF80BD00100240C9
:10098C00000801400038014080B400AF134B1B68D5
:10099C0003F02003002B0ED0104B5A68104B1B8D0C
:1009AC001946D2B20E4B0B441A750D4B1B8D0133ED
:1009BC009AB20B4B1A85094B1B6803F01003002BE2
:1009CC0008D0064B5B68064B1A8D054B5A85044BB9
:1009DC0000221A8500BFBD4680BC7047003801401C
:1009EC008001002080B400AF134B1B6803F0200380
:1009FC00002B0ED0104B5A68104B1B8D1946D2B2DF
:100A0C000E4B0B441A750D4B1B8D01339AB20B4BCD
:100A1C001A85094B1B6803F01003002B08D0064BFA
:100A2C005B68064B1A8D054B5A85044B00221A85C0
:100A3C0000BFBD4680BC704700440040AC010020A4
:100A4C0080B487B000AFF860B9603B601346FB80A0
:100A5C000023FB8219E01A4A3B68136005E0184B2F
:100A6C001B68002B01D1002324E0FB681B6803F0FA
:100A7C008003002BF3D0BB685A1CBA601B781A4653
:100A8C00FB685A60FB8A0133FB82FA8AFB889A4224
:100A9C00E1D30B4A3B68136005E0094B1B68002B44
:100AAC0001D1002306E0FB681B6803F04003002B18
:100ABC00F3D0012318461C37BD4680BC704700BFDD
:100ACC007C01002080B400AF224B1B680133214A0B
:100ADC001360214B1B68002B04D01F4B1B68013B80
:100AEC001D4A13601D4B1B68002B04D01B4B1B684D
:100AFC00013B1A4A13601A4B1B88002B06D0184B6B
:100B0C001B88013B9AB2164B1A801FE0154B1B78C1
:100B1C00002B14BF01230023DBB283F00103DBB2F3
:100B2C0003F00103DAB20F4B1A700E4B1B78002B3B
:100B3C0004D00D4B4FF400521A6103E00A4B4FF0F6
:100B4C0000521A61094B1A88054B1A8000BFBD462A
:100B5C0080BC704774010020780100207C010020CB
:100B6C00D8010020DA010020001001400000002014
:100B7C0080B586B000AF7860144A154BD31A7B61F0
:100B8C007B693B61134B1B68002B02D1114B124A42
:100B9C001A60104B1A687B6813443A699A4207D260
:100BAC0000F068F803460C221A604FF0FF3309E09E
:100BBC00084B1B68FB60074B1A687B681344054A9B
:100BCC001360FB6818461837BD4680BD00500020E6
:100BDC0000020000DC0100202803002080B400AFDC
:100BEC0000BFBD4680BC70470C480D490D4A002320
:100BFC0002E0D458C4500433C4188C42F9D30A4AC6
:100C0C000A4C002301E013600432A242FBD3FFF72D
:100C1C00E5FF00F035F8FFF79BFA70470000002065
:100C2C00540000202C16000854000020280300203B
:100C3C00FEE700000EB46FF0004100B59CB01DAB98
:100C4C0002900690079104910848094953F8042B27
:100C5C000591006802A9019300F08AF90022029B19
:100C6C001A701CB05DF804EB03B070470400002050
:100C7C000802FFFF014B1868704700BF04000020FA
:100C8C0070B500260C4D0D4C641BA410A64209D166
:100C9C0000F078FC00260A4D0A4C641BA410A642F6
:100CAC0005D170BD55F8043B98470136EEE755F871
:100CBC00043B98470136F2E7241600082416000876
:100CCC0024160008281600087047704738B50546EA
:100CDC00002940D051F8043C0C1F002BB8BFE4187D
:100CEC0000F0DEF81C4A136833B9636014602846C0
:100CFC00BDE8384000F0DAB8A34208D920682118C2
:100D0C008B4201BF19685B6809182160EDE71A4630
:100D1C005B680BB1A342FAD911685018A0420BD1F1
:100D2C0020680144501883421160E0D118685B6858
:100D3C00084410605360DAE702D90C232B60D6E725
:100D4C00206821188B4201BF19685B680918216063
:100D5C0063605460CBE738BD2403002070B50F4EA0
:100D6C000C463168054611B900F0AAFB30602146EB
:100D7C00284600F0A5FB431C03D14FF0FF3420465E
:100D8C0070BDC41C24F00304A042F8D0211A2846DC
:100D9C0000F096FB0130F2D1EFE700BF20030020FA
:100DAC002DE9F843CD1C25F0030508350C2D38BF73
:100DBC000C25002D064601DBA94204D90C23336017
:100DCC000020BDE8F883DFF8D48000F069F8D8F88B
:100DDC0000301C4644BB29463046FFF7BFFF431C7E
:100DEC00044658D1D8F800402746002F43D1002C98
:100DFC004BD023683946304604EB030900F060FB06
:100E0C00814542D1216830466D1A2946FFF7A6FF6D
:100E1C0001303AD023682B442360D8F800305A684C
:100E2C0062BBC8F800700FE02268521B20D40B2A5A
:100E3C0017D96119A342256018BF5960636808BFB0
:100E4C00C8F8001062514B60304600F02FF804F1E6
:100E5C000B00231D20F00700C21A1CBF1B1AA35045
:100E6C00AFE76268A3420CBFC8F800205A60EBE7FA
:100E7C0023466468AEE73C467F68B6E71A465B6873
:100E8C00A342FBD100235360DEE70C2330463360D2
:100E9C0000F00CF894E70560D6E700BF24030020AF
:100EAC000148FFF711BF00BF1C0300200148FFF7EA
:100EBC000CBF00BF1C0300202DE9F0471F468E68B5
:100ECC008246BE420C4690460B682DD8B1F90C20D8
:100EDC0012F4906F26D06569096905EB4505A3EB03
:100EEC00010905EBD5757B1C4B446D109D4238BF39
:100EFC001D46530527D52946FFF752FF064660B31A
:100F0C004A46216900F0FAFAA38923F4906343F06E
:100F1C008003A38126614E4426603E466561A5EBA5
:100F2C000905A560BE4200D93E46324641462068BE
:100F3C0000F0ACFA0020A3689B1BA3602368334429
:100F4C002360BDE8F0872A4600F0E6FA0646002842
:100F5C00E0D150462169FFF7B9FE0C23CAF80030E6
:100F6C00A3894FF0FF3043F04003A381E9E7000071
:100F7C002DE9F04F98468B8907461B060D46144603
:100F8C009DB010D50B6973B94021FFF709FF28609C
:100F9C00286130B90C233B604FF0FF301DB0BDE829
:100FAC00F08F40236B610023099320238DF82930A7
:100FBC0030234FF00109CDF80C80DFF898818DF8C3
:100FCC002A3023469A4613F8012B0AB1252AF9D167
:100FDC00BAEB040B0BD05B46224629463846FFF78A
:100FEC006BFF013000F0A780099A5A4409929AF8D5
:100FFC000030002B00F09F8000234FF0FF32CDE932
:10100C0005230AF1010A049307938DF853301A93C0
:10101C005446052214F8011B4E4800F061FA049A5C
:10102C00D8B9D00644BF20238DF85330110744BFE4
:10103C002B238DF853309AF800302A2B15D05446B8
:10104C0000204FF00A0C079A214611F8013B303B67
:10105C00092B4BD9B0B1079214E0A0EB080309FAA5
:10106C0003F31343A2460493D2E7039B191D1B6899
:10107C000391002BBBBF5B4242F002020793079324
:10108C00B8BF049223782E2B0AD163782A2B32D145
:10109C00039B02341A1D1B68039243EAE373059306
:1010AC00DFF8B4A003225046217800F019FA38B1C9
:1010BC004022049BA0EB0A008240134301340493AA
:1010CC0014F8011B062225488DF8281000F008FAA8
:1010DC00002836D0224B1BBB039B073323F007039E
:1010EC0008330393099B334409936AE70C460120A8
:1010FC000CFB0232A8E700234FF00A0C194601340E
:10110C000593204610F8012B303A092A03D9002BFD
:10111C00C6D00591C4E7044601230CFB0121F0E77E
:10112C0003AB00932A4638460E4B04A9AFF300805C
:10113C00421C0646D6D1AB895B063FF52DAF09980C
:10114C002CE703AB00932A463846064B04A900F063
:10115C007DF8EDE7E9150008EF150008F315000818
:10116C0000000000C50E00082DE9F0471646984611
:10117C008A680B6907469342B8BF1346336091F8EF
:10118C0043200C46DDF820900AB10133336023680C
:10119C00990642BF336802333360256815F00605A3
:1011AC0006D104F1190AE36832689B1AAB422BDCB6
:1011BC0094F843302268003B18BF0123920630D4C8
:1011CC004146384604F14302C847013023D0236816
:1011DC00226903F00603042B14BF002533684FF07B
:1011EC00000608BFE56804F11A0408BFED1A54F8AC
:1011FC00123C08BF25EAE5759342C4BF9B1AED1853
:10120C00B5421AD1002008E0012352464146384627
:10121C00C847013003D14FF0FF30BDE8F0870135EE
:10122C00C1E73020E11881F843005A1C94F84510AE
:10123C002244023382F84310C2E70123224641467E
:10124C003846C8470130E6D00136D9E72DE9FF47CB
:10125C000F7E9146782F80460C469A460C9E01F1E3
:10126C00430207D8622F0AD8002F00F0D380582FE2
:10127C0000F0BA8004F1420684F842703AE0A7F11B
:10128C006303152BF6D801A151F823F0F1120008D5
:10129C000513000881120008811200088112000851
:1012AC008112000805130008811200088112000841
:1012BC008112000881120008071400082F1300087F
:1012CC00C1130008811200088112000829140008BB
:1012DC00811200082F1300088112000881120008E7
:1012EC00C913000833681A1D1B68326004F14206EA
:1012FC0084F8423001239EE033682068191D316068
:10130C00060601D51D6803E04506FBD5B3F9005070
:10131C00002D03DA2D236D4284F843300A235948FB
:10132C0011E021683368080653F8045B02D44906BF
:10133C0048BFADB26F2F336014BF0A230823514846
:10134C00002184F843106668002EA8BF2168A660AF
:10135C00A4BF21F0040121600DB9002E4BD016461C
:10136C00B5FBF3F103FB1157C75D06F8017D2F4662
:10137C00BB420D46F4D9082B0BD12368DF0708D5E7
:10138C00236961689942DEBF302306F8013C06F1FF
:10139C00FF36921B22614B4621464046CDF800A0F9
:1013AC0003AAFFF7E1FE01304AD14FF0FF3004B041
:1013BC00BDE8F087236843F0200323607827324888
:1013CC0084F84570236831681F0651F8045B02D419
:1013DC005F0648BFADB23160D90744BF43F020036C
:1013EC0023601DB11023ABE72648E9E7236823F0FF
:1013FC0020032360F6E71646BDE733682568181D01
:10140C00616930602E061B6801D5196002E0680620
:10141C00FBD51980002316462361BCE733680021F5
:10142C001A1D32601E686268304600F059F808B127
:10143C00801B606063682361002384F84330AAE753
:10144C003246494640462369D0470130ADD0236827
:10145C009B0713D4E068039B9842B8BF1846A6E7D5
:10146C000123324649464046D04701309DD00135D4
:10147C00E36803995B1AAB42F2DCEBE7002504F15D
:10148C001906F5E7FA1500080B160008884210B586
:10149C0001EB020402D98442234607D8431EA14221
:1014AC0008D011F8012B03F8012FF8E7014602448C
:1014BC008A4200D110BD13F8014D02F8014DF7E737
:1014CC0038B50023054D044608462B60FFF750FB4A
:1014DC00431C02D12B6803B1236038BD18030020D4
:1014EC00034610B5C9B202449342184601D10020FC
:1014FC0003E0047801338C42F6D110BD0A449142CA
:10150C0000F1FF3300D1704710B511F8014B914237
:10151C0003F8014FF9D110BD2DE9F0418046154675
:10152C000C4621B91146BDE8F041FFF739BC2AB988
:10153C00FFF7CCFB00242046BDE8F08100F01AF840
:10154C008542064602D8B5EB500FF4D829464046E2
:10155C00FFF726FC07460028ECD0B5422A46214668
:10156C0028BF3246FFF7CAFF21464046FFF7AEFBC5
:10157C003C46E0E751F8043C181F002BBCBF0B584D
:10158C00C0187047F8B500BFF8BC08BC9E46704741
:0C159C00F8B500BFF8BC08BC9E467047C4
:1015A800D09FD180D0B8D0B2D0B5D18220D0BCD015
:1015B800B8D180210D0AD0A1D187D0B5D182D187E9
:1015C800D0B8D0BA20D0B4D0BED181D187D0B8D1CC
:1015D80082D0B0D0BB20D0B4D0BE20256C640D0A18
:1015E80000232D302B2000686C4C0065666745464B
:1015F8004700303132333435363738394142434485
:101608004546003031323334353637383961626314
:04161800646566009F
:08161C0030EBFF7F010000002C
:041624003101000888
:041628000D010008A8
:10162C00630000000800002000000000E001002022
:10163C0048020020B0020020000000000000000062
:10164C00000000000000000000000000000000008E
:10165C00000000000000000000000000000000007E
:10166C00000000000000000000000000000000006E
:04167C00000000006A
:0400000508000BF5EF
:00000001FF
