:020000040800F2
:1000000000500020F10B0008390C0008390C0008E2
:10001000390C0008390C0008390C000800000000F9
:10002000000000000000000000000000390C000883
:10003000390C000800000000390C0008CD0A000847
:10004000390C0008390C0008390C0008390C00087C
:10005000390C0008390C00086D070008390C00083D
:10006000390C0008390C0008390C0008F9070008A1
:10007000390C0008390C0008390C0008390C00084C
:10008000390C0008390C0008D9070008390C0008A1
:10009000390C0008390C0008390C0008390C00082C
:1000A000390C0008B1070008390C0008390C0008A9
:1000B000390C000889070008390C0008390C0008C1
:1000C000390C0008390C0008390C0008390C0008FC
:1000D000390C000891090008ED090008390C0008E6
:1000E000390C0008390C0008390C00080000000029
:1000F0000000000000000000000000000000000000
:0C01000000000000000000005FF808F1A3
:10010C0010B5054C237833B9044B13B10448AFF345
:10011C0000800123237010BD680000200000000047
:10012C008415000808B5034B1BB103490348AFF312
:10013C00008008BD000000006C0000208415000841
:10014C00034613F8012B002AFBD1181A013870470B
:10015C0080B582B002AF00F04BF800F077F800F0F9
:10016C000BF900F065FB03230093002300220D2103
:10017C000C4800F06DFA0C4B1B6801330A4A1360F3
:10018C00094B1B681A460949094800F07BFD0848D1
:10019C00FFF7D6FF03469AB264230549054800F0E1
:1001AC004DFCE8E700100140840000209C1500087D
:1001BC00880000200038014080B483B000AF0346B3
:1001CC00FB7197F90730002B0BDBFB7903F01F0257
:1001DC00064997F907305B09012000FA02F241F851
:1001EC00232000BF0C37BD4680BC704700E100E007
:1001FC0080B400AF124B9B69114A43F00403936126
:10020C000F4B9B690E4A43F0010393610D4B5B68E6
:10021C0023F0E0630B4A43F0007353600A4B4FF436
:10022C00B0329A61084B4FF4C0429A61064B4FF4BE
:10023C00B0329A61044B9B6900BFBD4680BC7047CD
:10024C0000100240000001400008014080B400AFE3
:10025C00474B1B68464A43F00103136000BF444BF5
:10026C001B6803F00203002BF9D0414B1B68404A7A
:10027C0023F4802313603E4B1B683D4A43F48033C8
:10028C00136000BF3A4B1B6803F40033002BF9D00A
:10029C00374B1B68364A43F400231360344B5B68BE
:1002AC0023F00303324A43F001035360304B5B6885
:1002BC002F4A23F0F00353602E4B1B6823F00703E7
:1002CC002C4A43F0020313602A4B1B68294A43F063
:1002DC0010031360264B5B6823F4E063244A43F459
:1002EC0080635360224B5B68214A23F46053536054
:1002FC001F4B5B6823F440431D4A43F40043536097
:10030C001B4B5B681A4A43F480335360184B184AF2
:10031C005B685360164B5B6823F47013144A43F408
:10032C00E0135360124B5B68114A23F48003536053
:10033C000F4B5B680E4A23F0E06353600C4B1B6859
:10034C000B4A43F080731360094B5B6823F0030383
:10035C00074A43F00203536000BF054B1B6803F0D0
:10036C000073002BF9D000BF00BFBD4680BC7047A6
:10037C00001002400020024080B400AF154B1B68F7
:10038C00144A23F001031360124B1B68114A43F00B
:10039C00020313600F4B1B680E4A43F004031360F7
:1003AC000C4B5B6803F07F420A490B4B13434B60C9
:1003BC00084B9B6803F07F420649074B13438B6045
:1003CC00044B1B68034A43F00103136000BFBD4696
:1003DC0080BC704710E000E03F19010080B485B08C
:1003EC0000AF7860084611461A460346FB700B4670
:1003FC00BB7013467B700023FB73BB78002B02D0C1
:10040C00012B13D028E0FB789B00FB737B681A68E8
:10041C00FB7B032101FA03F3DB4313407978FA7B6E
:10042C0001FA02F21A437B681A6015E0FB78083B6C
:10043C00FB70FB789B00FB737B685A68FB7B03218A
:10044C0001FA03F3DB4313407978FA7B01FA02F2E9
:10045C001A437B685A6000BF00BF1437BD4680BC8E
:10046C00704780B584B000AF78600B46FB701346C4
:10047C00BB700023FB73FB78072B02D80023FB73A4
:10048C0001E00123FB73BB78002B06D1FA7BF978D2
:10049C0000237868FFF7A2FF1CE0BB78012B06D184
:1004AC00FA7BF97801237868FFF798FF12E0BB78A4
:1004BC00022B06D1FA7BF97802237868FFF78EFFBE
:1004CC0008E0BB78032B05D1FA7BF9780323786815
:1004DC00FFF784FF00BF1037BD4680BD80B485B0E8
:1004EC0000AFF8607B600B46FB721346BB72FB7A65
:1004FC00002B02D0012B12D021E0FB681A687B681C
:10050C001B78194603238B40DB431340BA7A796876
:10051C0009788A401A43FB681A6000BF0FE0FB6839
:10052C005A687B681B78194603238B40DB431340C6
:10053C00BA7A796809788A401A43FB685A6000BF16
:10054C001437BD4680BC704780B584B000AFF860EE
:10055C00B96011461A460B46FB711346BB71FB7909
:10056C00022B30D0022B6FDC002B02D0012B15D0CC
:10057C006AE0BB79002B02D0012B07D064E0FB6949
:10058C00397E0022F868FFF7A9FF06E0FB69397E87
:10059C000122F868FFF7A2FF00BF55E0BB79002BE2
:1005AC0002D0012B07D04FE0FB69397E0222F8689C
:1005BC00FFF794FF06E0FB69397E0322F868FFF72A
:1005CC008DFF00BF40E0BB79023B032B3BD801A25F
:1005DC0052F823F0F1050008FF0500080D0600088D
:1005EC0031060008FB69397E0022F868FFF776FFB8
:1005FC0029E0FB69397E0122F868FFF76FFF22E0E2
:10060C00FB69397E0222F868FFF768FFFB68DA683D
:10061C00BB681B78194601238B40DB431A40FB68EF
:10062C00DA6010E0FB69397E0222F868FFF756FFAA
:10063C00FB68DA68BB681B78194601238B401A43A8
:10064C00FB68DA6000BF00BF00BF1037BD4680BD3D
:10065C0080B586B002AF7860084611461A4603464C
:10066C00FB700B46BB7013467B700023FB737B68DF
:10067C00354A934206D1354B9B69344A43F0040307
:10068C0093612AE07B68324A934206D12F4B9B69D7
:10069C002E4A43F0080393611FE07B682D4A934276
:1006AC0006D12A4B9B69294A43F01003936114E04D
:1006BC007B68294A934206D1244B9B69234A43F019
:1006CC002003936109E07B68244A934205D11F4BB8
:1006DC009B691E4A43F040039361FB783A7E1946AE
:1006EC007868FFF7BEFEFB78072B12D8FB789B00CF
:1006FC00DBB20233DBB2FB737878BA78F91C07F102
:10070C000F0301930023009303467868FFF71CFF47
:10071C0015E0FB78083BDBB2FB70FB789B00DBB28F
:10072C000233DBB2FB737878BA78F91C07F10F034C
:10073C0001930123009303467868FFF705FF00BF80
:10074C001037BD4680BD00BF0008014000100240BC
:10075C00000C014000100140001401400018014041
:10076C0080B400AF044B5B69034A43F0010353614F
:10077C0000BFBD4680BC70470004014080B400AF90
:10078C00074B1B6903F00103002B05D0044B1B69BD
:10079C00034A23F00103136100BFBD4680BC7047C0
:1007AC000004004080B400AF074B1B6903F0010349
:1007BC00002B05D0044B1B69034A23F00103136182
:1007CC0000BFBD4680BC7047002C014080B400AF18
:1007DC00054B1B6803F00203002B01D0024BDB6CB2
:1007EC0000BFBD4680BC70470024014080B400AF00
:1007FC000E4B1B6803F00203002B06D00B4B5B68FF
:10080C000A4A43F0010353600BE0084B1B6803F0EA
:10081C000803002B05D0054B5B68044A43F0010329
:10082C00536000BFBD4680BC704700BF0000024053
:10083C0080B500AF504B9B694F4A43F00403936162
:10084C004D4B9B694C4A43F0010393614B4B5B68E6
:10085C0023F0C003494A43F080035360474B5B6865
:10086C00464A43F030035360444B5B6823F44063C7
:10087C00424A43F480635360404B5B683F4A23F425
:10088C00407353603C4B9B693B4A43F480439361F8
:10089C003B4B9B6823F47F4323F0F003384A43F42B
:1008AC001C739360364B9B6823F00F03344A43F060
:1008BC0001039360324BDB68314A43F40053D3603D
:1008CC002F4BDB682E4A23F48053D3602C4BDB6810
:1008DC002B4A23F40063D360294BDB68284A23F4AA
:1008EC008063D360264BDB68254A23F48073D36086
:1008FC00234BDB68224A23F08003D360204BDB6858
:10090C001F4A23F04003D3601D4BDB681C4A43F0A5
:10091C002003D3601A4BDB68194A43F01003D360F1
:10092C00174BDB68164A43F00803D360144BDB68A3
:10093C00134A43F00403D360114BDB68104A23F0D5
:10094C000203D3600E4BDB680D4A23F00103D36026
:10095C000B4B00221A610A4B1B69094A23F44053C2
:10096C001361074B00225A61054B00229A61252026
:10097C00FFF722FC00BF80BD0010024000080140C0
:10098C000038014080B400AF134B1B6803F0200308
:10099C00002B0ED0104B5A68104B1B8D1946D2B23F
:1009AC000E4B0B441A750D4B1B8D01339AB20B4B2E
:1009BC001A85094B1B6803F01003002B08D0064B5B
:1009CC005B68064B1A8D054B5A85044B00221A8521
:1009DC0000BFBD4680BC7047003801409401002028
:1009EC0080B400AF134B1B6803F02003002B0ED018
:1009FC00104B5A68104B1B8D1946D2B20E4B0B4440
:100A0C001A750D4B1B8D01339AB20B4B1A85094B82
:100A1C001B6803F01003002B08D0064B5B68064BD9
:100A2C001A8D054B5A85044B00221A8500BFBD4612
:100A3C0080BC704700440040C001002080B487B0E7
:100A4C0000AFF860B9603B601346FB800023FB826B
:100A5C0019E01A4A3B68136005E0184B1B68002B21
:100A6C0001D1002324E0FB681B6803F08003002BFA
:100A7C00F3D0BB685A1CBA601B781A46FB685A60E4
:100A8C00FB8A0133FB82FA8AFB889A42E1D30B4A38
:100A9C003B68136005E0094B1B68002B01D1002358
:100AAC0006E0FB681B6803F04003002BF3D0012326
:100ABC0018461C37BD4680BC704700BF9001002013
:100ACC0080B400AF224B1B680133214A1360214BC9
:100ADC001B68002B04D01F4B1B68013B1D4A136085
:100AEC001D4B1B68002B04D01B4B1B68013B1A4A87
:100AFC0013601A4B1B88002B06D0184B1B88013B2C
:100B0C009AB2164B1A801FE0154B1B78002B14BFA2
:100B1C0001230023DBB283F00103DBB203F00103FA
:100B2C00DAB20F4B1A700E4B1B78002B04D00D4B06
:100B3C004FF400521A6103E00A4B4FF000521A6155
:100B4C00094B1A88054B1A8000BFBD4680BC704704
:100B5C00880100208C01002090010020EC01002075
:100B6C00EE010020001001400000002080B586B08E
:100B7C0000AF7860144A154BD31A7B617B693B61DB
:100B8C00134B1B68002B02D1114B124A1A60104BED
:100B9C001A687B6813443A699A4207D200F048F805
:100BAC0003460C221A604FF0FF3309E0084B1B6818
:100BBC00FB60074B1A687B681344054A1360FB689B
:100BCC0018461837BD4680BD0050002000020000BA
:100BDC00F00100200802002080B400AF00BFBD4629
:100BEC0080BC70470C480D490D4A002302E0D458D4
:100BFC00C4500433C4188C42F9D30A4A0A4C00235B
:100C0C0001E013600432A242FBD3FFF7E5FF00F0D2
:100C1C0015F8FFF79DFA70470000002068000020CF
:100C2C00181600086800002004020020FEE70000EF
:100C3C00014B1868704700BF0400002070B50026F7
:100C4C000C4D0D4C641BA410A64209D100F094FC71
:100C5C0000260A4D0A4C641BA410A64205D170BD97
:100C6C0055F8043B98470136EEE755F8043B984796
:100C7C000136F2E7101600081016000810160008CE
:100C8C00141600080EB46FF0004100B59CB01DABFB
:100C9C0002900690079104910848094953F8042BD7
:100CAC000591006802A9019300F068F80022029BEC
:100CBC001A701CB05DF804EB03B070470400002000
:100CCC000802FFFF2DE9F0478E6882469E420C46D3
:100CDC0090461F4638D88A8912F4906F32D0256816
:100CEC0009690133A5EB010965694B4405EB450521
:100CFC0005EBD5756D109D4238BF1D46530531D59A
:100D0C00294600F06FFB064650B90C234FF0FF301C
:100D1C00CAF80030A38943F04003A381BDE8F087F3
:100D2C004A46216900F0CEFAA38923F4906343F07C
:100D3C008003A38126614E4426603E466561A5EB87
:100D4C000905A560BE4200D93E46324641462068A0
:100D5C0000F0C6FAA36800209B1BA36023683344F1
:100D6C002360DBE72A4600F0B1FB06460028E1D100
:100D7C005046216900F0CEFAC7E700002DE9F04F8C
:100D8C0098468B8907461B060D4614469DB00ED51A
:100D9C000B6963B9402100F025FB2860286120B95C
:100DAC000C233B604FF0FF30D1E040236B610023FC
:100DBC00099320238DF8293030234FF00109CDF809
:100DCC000C80DFF8A4818DF82A3023469A4613F85C
:100DDC00012B0AB1252AF9D1BAEB040B0BD05B46D7
:100DEC00224629463846FFF76DFF013000F0AA80F5
:100DFC00099A5A4409929AF80030002B00F0A2800C
:100E0C0000234FF0FF32CDE905230AF1010A0493C8
:100E1C0007938DF853301A935446052214F8011B8E
:100E2C00514800F041FA049AD8B9D00644BF2023A7
:100E3C008DF85330110744BF2B238DF853309AF89B
:100E4C0000302A2B15D0544600204FF00A0C079A7C
:100E5C00214611F8013B303B092B4ED9B0B107921A
:100E6C0014E0A0EB080309FA03F31343A24604931E
:100E7C00D2E7039B191D1B680391002BBBBF5B4280
:100E8C0042F0020207930793B8BF049223782E2BEB
:100E9C000CD163782A2B35D1039B02341A1D1B68A5
:100EAC000392002BB8BF4FF0FF330593DFF8BCA0C3
:100EBC0003225046217800F0F7F940B14023A0EB13
:100ECC000A0003FA00F0049B01340343049314F862
:100EDC00011B062226488DF8281000F0E5F90028A1
:100EEC0038D0244B1BBB039B073323F00703083379
:100EFC000393099B3344099367E70C4601200CFBD1
:100F0C000232A5E700234FF00A0C19460134059371
:100F1C00204610F8012B303A092A03D9002BC5D0F2
:100F2C000591C3E7044601230CFB0121F0E703AB59
:100F3C0000932A463846104B04A9AFF30080421C9C
:100F4C000646D6D1AB895B063FF52CAF09981DB090
:100F5C00BDE8F08F03AB00932A463846064B04A934
:100F6C0000F07CF8EBE700BFDD150008E315000886
:100F7C00E715000800000000D10C00082DE9F0472F
:100F8C00164699468A680B6907469342B8BF1346C2
:100F9C00336091F843200C46DDF820800AB1013310
:100FAC0033602368990642BF336802333360256887
:100FBC0015F0060506D104F1190AE36832689B1A8C
:100FCC00AB4228DC94F84320131E226818BF01237F
:100FDC0092062DD44946384604F14302C0470130ED
:100FEC0020D02368E56803F00603042B18BF002506
:100FFC0032684FF00006A36808BFAD1A226908BF1B
:10100C0025EAE5759342C4BF9B1AED181A34B54214
:10101C001AD1002008E00123524649463846C04701
:10102C00013003D14FF0FF30BDE8F0870135C4E744
:10103C003020E11881F843005A1C94F845102244E2
:10104C00023382F84310C5E701232246494638464D
:10105C00C0470130E6D00136D9E700002DE9FF4743
:10106C000F7E9146782F80460C469A460C9D01F1D6
:10107C00430207D8622F0AD8002F00F0D980582FCE
:10108C0000F0A48004F1420584F842703AE0A7F124
:10109C006303152BF6D801A151F823F001110008B8
:1010AC00151100089110000891100008911000080B
:1010BC0091100008151100089110000891100008FB
:1010CC009110000891100008231200084511000827
:1010DC000512000891100008911000084512000834
:1010EC00911000084511000891100008911000089B
:1010FC000D1200082B681A1D1B682A6004F14205AA
:10110C0084F842300123A4E020682968060601F126
:10111C0004030AD50E682B60002E03DA2D237642C9
:10112C0084F843300A235E4819E00E6810F0400F33
:10113C002B6018BF36B2EFE72B682068191D2960A9
:10114C00010601D51E6802E04606FBD51E886F2FEE
:10115C000CBF08230A235248002184F84310656809
:10116C00002DA8BF2168A560A4BF21F00401216057
:10117C000EB9002D4DD01546B6FBF3F103FB1167EC
:10118C00C75D05F8017D3746BB420E46F4D9082BE6
:10119C000BD12368DE0708D5236961689942DEBF4D
:1011AC00302305F8013C05F1FF35521B22614B46FB
:1011BC0021464046CDF800A003AAFFF7DFFE013020
:1011CC004CD14FF0FF3004B0BDE8F087344881F8C3
:1011DC0045702968236851F8046B29601D0614D5E5
:1011EC00DF0744BF43F0200323601EB9236823F0BC
:1011FC00200323601023AFE7236843F02003236010
:10120C007823284884F84530E3E7590648BFB6B23E
:10121C00E6E71546BBE72B682668181D6169286050
:10122C0035061B6801D5196002E07006FBD51980E4
:10123C00002315462361BAE72B6800211A1D2A608A
:10124C001D686268284600F02FF808B1401B6060EA
:10125C0063682361002384F84330A8E72A46494693
:10126C0040462369D0470130ABD023689B0713D489
:10127C00E068039B9842B8BF1846A4E701233246A6
:10128C0049464046D04701309BD00135E36803996D
:10129C005B1AAB42F2DCEBE7002504F11906F5E72B
:1012AC00EE150008FF150008034610B5C9B202443C
:1012BC009342184601D1002003E0047801338C429C
:1012CC00F6D110BD0A44914200F1FF3300D17047B2
:1012DC0010B511F8014B914203F8014FF9D110BD33
:1012EC00884210B501EB020402D98442234607D888
:1012FC00431EA14208D011F8012B03F8012FF8E787
:10130C00014602448A4200D110BD13F8014D02F887
:10131C00014DF7E738B50546002940D051F8043C9B
:10132C000C1F002BB8BFE41800F010F91C4A13680E
:10133C0033B9636014602846BDE8384000F00CB93E
:10134C00A34208D9206821188B4201BF19685B6839
:10135C0009182160EDE71A465B680BB1A342FAD974
:10136C0011685018A0420BD12068014450188342D8
:10137C001160E0D118685B68014411605360DAE7D2
:10138C0002D90C232B60D6E7206821188B4201BFB1
:10139C0019685B680918216063605460CBE738BD3D
:1013AC00F401002070B50E4E0C463168054611B99B
:1013BC0000F0BCF830602146284600F0B7F8431C1A
:1013CC000AD0C41C24F00304A04207D0211A2846DA
:1013DC0000F0ACF8013001D14FF0FF34204670BD65
:1013EC00F80100202DE9F041CD1C25F0030508354E
:1013FC000C2D38BF0C25002D074601DBA94205D961
:10140C000C2300263B603046BDE8F0812E4E00F0E8
:10141C009DF833681C4634BB29463846FFF7C2FF9B
:10142C00431C04464DD134682646002E40D1236817
:10143C003146384604EB030800F078F880453AD181
:10144C00216803356D1A25F0030508350C2D38BFBE
:10145C000C2538462946FFF7A5FF01302BD0236811
:10146C002B4423600EE02268521B1ED40B2A16D983
:10147C006119A342256018BF5960636808BF3160C9
:10148C0062514B60384604F10B0600F065F826F00B
:10149C000706231DF21AB6D09B1BA350B3E7626854
:1014AC00A3420CBF32605A60ECE723466468B2E793
:1014BC0034467668B9E70C2338463B6000F04CF8AC
:1014CC00A1E72560DEE700BFF40100202DE9F04123
:1014DC00804614460E4621B91146BDE8F041FFF78F
:1014EC0081BF2AB9FFF716FF25462846BDE8F081D3
:1014FC0000F038F88442074602D8B4EB500F12D8EB
:10150C0021464046FFF76EFF05460028EDD0BC4251
:10151C002246314628BF3A46FFF7D4FE31464046B4
:10152C00FFF7F8FEE1E73546DFE7000038B50023AA
:10153C00054D044608462B60FFF718FB431C02D1EF
:10154C002B6803B1236038BDFC010020014800F07A
:10155C0011B800BF00020020014800F00CB800BF19
:10156C000002002051F8043C181F002BBCBF0B5884
:10157C00C018704770477047F8B500BFF8BC08BC7E
:10158C009E467047F8B500BFF8BC08BC9E46704735
:10159C00D09FD180D0B8D0B2D0B5D18220D0BCD021
:1015AC00B8D180210D0AD0A1D187D0B5D182D187F5
:1015BC00D0B8D0BA20D0B4D0BED181D187D0B8D1D8
:1015CC0082D0B0D0BB20D0B4D0BE20256C640D0A24
:1015DC0000232D302B2000686C4C00656667454657
:1015EC004700303132333435363738394142434491
:1015FC004546003031323334353637383961626321
:04160C0064656600AB
:04161000310100089C
:041614000D010008BC
:101618006300000008000020000000000000000037
:1016280000000000000000000000000000000000B2
:1016380000000000000000000000000000000000A2
:101648000000000000000000000000000000000092
:101658000000000000000000000000000000000082
:101668000000000000000000000000000000000072
:0816780000000000000000006A
:0400000508000BF1F3
:00000001FF
