:020000040800F2
:1000000000500020550B00089D0B00089D0B0008B8
:100010009D0B00089D0B00089D0B000800000000D0
:100020000000000000000000000000009D0B000820
:100030009D0B0008000000009D0B00081D04000837
:100040009D0B00089D0B00089D0B00089D0B0008F0
:100050009D0B00089D0B0008E90700089D0B000898
:100060009D0B00089D0B00089D0B000875080008FB
:100070009D0B00089D0B00089D0B00089D0B0008C0
:100080009D0B00089D0B0008550800089D0B0008FB
:100090009D0B00089D0B00089D0B00089D0B0008A0
:1000A0009D0B00082D0800089D0B00089D0B000803
:1000B0009D0B0008050800089D0B00089D0B00081B
:1000C0009D0B00089D0B00089D0B00089D0B000870
:1000D0009D0B00080D0A0008690A00089D0B000826
:1000E0009D0B00089D0B00089D0B00080000000000
:1000F0000000000000000000000000000000000000
:0C01000000000000000000005FF808F1A3
:10010C0010B5054C237833B9044B13B10448AFF345
:10011C0000800123237010BD40000020000000006F
:10012C00E80B000808B5034B1BB103490348AFF3B8
:10013C00008008BD0000000044000020E80B00080F
:10014C00034613F8012B002AFBD1181A013870470B
:10015C0080B582B002AF00F051F800F07DF800F0ED
:10016C0011F900F0A3FB03230093002300220D21BF
:10017C00104800F0ABFA104B1B6801330E4A1360A9
:10018C000C4B4FF000521A61642000F02DF9094B12
:10019C004FF400521A61642000F026F90748FFF76B
:1001AC00CFFF03469AB264230449054800F084FC4F
:1001BC00E1E700BF001001405C00002000000020BF
:1001CC000038014080B483B000AF0346FB7197F94F
:1001DC000730002B0BDBFB7903F01F02064997F964
:1001EC0007305B09012000FA02F241F8232000BF1E
:1001FC000C37BD4680BC704700E100E080B400AF16
:10020C00124B9B69114A43F0040393610F4B9B699A
:10021C000E4A43F0010393610D4B5B6823F0E063DE
:10022C000B4A43F0007353600A4B4FF4B0329A619F
:10023C00084B4FF4C0429A61064B4FF4B0329A61AE
:10024C00044B9B6900BFBD4680BC70470010024048
:10025C00000001400008014080B400AF474B1B6810
:10026C00464A43F00103136000BF444B1B6803F084
:10027C000203002BF9D0414B1B68404A23F4802326
:10028C0013603E4B1B683D4A43F48033136000BF40
:10029C003A4B1B6803F40033002BF9D0374B1B6827
:1002AC00364A43F400231360344B5B6823F003039A
:1002BC00324A43F001035360304B5B682F4A23F002
:1002CC00F00353602E4B1B6823F007032C4A43F0BA
:1002DC00020313602A4B1B68294A43F01003136076
:1002EC00264B5B6823F4E063244A43F48063536039
:1002FC00224B5B68214A23F4605353601F4B5B68AD
:10030C0023F440431D4A43F4004353601B4B5B688A
:10031C001A4A43F480335360184B184A5B68536095
:10032C00164B5B6823F47013144A43F4E0135360C8
:10033C00124B5B68114A23F4800353600F4B5B68CC
:10034C000E4A23F0E06353600C4B1B680B4A43F0DE
:10035C0080731360094B5B6823F00303074A43F077
:10036C000203536000BF054B1B6803F00073002BA6
:10037C00F9D000BF00BFBD4680BC704700100240E2
:10038C000020024080B400AF154B1B68144A23F0C8
:10039C0001031360124B1B68114A43F002031360F4
:1003AC000F4B1B680E4A43F0040313600C4B5B6845
:1003BC0003F07F420A490B4B13434B60084B9B687D
:1003CC0003F07F420649074B13438B60044B1B68B9
:1003DC00034A43F00103136000BFBD4680BC704765
:1003EC0010E000E03F19010080B483B000AF7860EA
:1003FC00064A7B68136000BF044B1B68002BFBD1C3
:10040C0000BF00BF0C37BD4680BC704764000020A5
:10041C0080B400AF0D4B1B6801330C4A13600C4BBE
:10042C001B68002B04D00A4B1B68013B084A136065
:10043C00084B1B68002B04D0064B1B68013B054A7C
:10044C00136000BFBD4680BC704700BF6000002039
:10045C00640000206800002080B485B000AF786094
:10046C00084611461A460346FB700B46BB701346F2
:10047C007B700023FB73BB78002B02D0012B13D0B5
:10048C0028E0FB789B00FB737B681A68FB7B0321DD
:10049C0001FA03F3DB4313407978FA7B01FA02F299
:1004AC001A437B681A6015E0FB78083BFB70FB78FD
:1004BC009B00FB737B685A68FB7B032101FA03F3F7
:1004CC00DB4313407978FA7B01FA02F21A437B681A
:1004DC005A6000BF00BF1437BD4680BC704780B562
:1004EC0084B000AF78600B46FB701346BB700023E2
:1004FC00FB73FB78072B02D80023FB7301E001236D
:10050C00FB73BB78002B06D1FA7BF9780023786853
:10051C00FFF7A2FF1CE0BB78012B06D1FA7BF97820
:10052C0001237868FFF798FF12E0BB78022B06D105
:10053C00FA7BF97802237868FFF78EFF08E0BB7826
:10054C00032B05D1FA7BF97803237868FFF784FF36
:10055C0000BF1037BD4680BD80B485B000AFF860D9
:10056C007B600B46FB721346BB72FB7A002B02D0EE
:10057C00012B12D021E0FB681A687B681B781946A6
:10058C0003238B40DB431340BA7A796809788A409D
:10059C001A43FB681A6000BF0FE0FB685A687B685F
:1005AC001B78194603238B40DB431340BA7A7968D6
:1005BC0009788A401A43FB685A6000BF1437BD465D
:1005CC0080BC704780B584B000AFF860B96011464C
:1005DC001A460B46FB711346BB71FB79022B30D0CC
:1005EC00022B6FDC002B02D0012B15D06AE0BB79FB
:1005FC00002B02D0012B07D064E0FB69397E00226E
:10060C00F868FFF7A9FF06E0FB69397E0122F8685C
:10061C00FFF7A2FF00BF55E0BB79002B02D0012BE6
:10062C0007D04FE0FB69397E0222F868FFF794FF90
:10063C0006E0FB69397E0322F868FFF78DFF00BFE7
:10064C0040E0BB79023B032B3BD801A252F823F0CC
:10065C006D0600087B06000889060008AD06000838
:10066C00FB69397E0022F868FFF776FF29E0FB6909
:10067C00397E0122F868FFF76FFF22E0FB69397EB3
:10068C000222F868FFF768FFFB68DA68BB681B7822
:10069C00194601238B40DB431A40FB68DA6010E0FB
:1006AC00FB69397E0222F868FFF756FFFB68DA68AF
:1006BC00BB681B78194601238B401A43FB68DA6030
:1006CC0000BF00BF00BF1037BD4680BD80B586B0EF
:1006DC0002AF7860084611461A460346FB700B467B
:1006EC00BB7013467B700023FB737B68354A9342C7
:1006FC0006D1354B9B69344A43F0040393612AE0DD
:10070C007B68324A934206D12F4B9B692E4A43F0A9
:10071C00080393611FE07B682D4A934206D12A4B54
:10072C009B69294A43F01003936114E07B68294AC2
:10073C00934206D1244B9B69234A43F020039361D7
:10074C0009E07B68244A934205D11F4B9B691E4AE2
:10075C0043F040039361FB783A7E19467868FFF7C3
:10076C00BEFEFB78072B12D8FB789B00DBB2023362
:10077C00DBB2FB737878BA78F91C07F10F0301939D
:10078C000023009303467868FFF71CFF15E0FB7805
:10079C00083BDBB2FB70FB789B00DBB20233DBB2B5
:1007AC00FB737878BA78F91C07F10F0301930123D6
:1007BC00009303467868FFF705FF00BF1037BD466E
:1007CC0080BD00BF0008014000100240000C014039
:1007DC0000100140001401400018014080B400AF2B
:1007EC00044B5B69034A43F00103536100BFBD46F0
:1007FC0080BC70470004014080B400AF074B1B69FC
:10080C0003F00103002B05D0044B1B69034A23F0B2
:10081C000103136100BFBD4680BC7047000400405B
:10082C0080B400AF074B1B6903F00103002B05D00C
:10083C00044B1B69034A23F00103136100BFBD463F
:10084C0080BC7047002C014080B400AF054B1B6886
:10085C0003F00203002B01D0024BDB6C00BFBD4642
:10086C0080BC70470024014080B400AF0E4B1B6865
:10087C0003F00203002B06D00B4B5B680A4A43F0D3
:10088C00010353600BE0084B1B6803F00803002BBB
:10089C0005D0054B5B68044A43F00103536000BF6D
:1008AC00BD4680BC704700BF0000024080B500AF61
:1008BC00504B9B694F4A43F0040393614D4B9B692A
:1008CC004C4A43F0010393614B4B5B6823F0C0032C
:1008DC00494A43F080035360474B5B68464A43F0F8
:1008EC0030035360444B5B6823F44063424A43F447
:1008FC0080635360404B5B683F4A23F44073536002
:10090C003C4B9B693B4A43F4804393613B4B9B6854
:10091C0023F47F4323F0F003384A43F4EA53936003
:10092C00364B9B6823F00F03344A43F00C0393605F
:10093C00324BDB68314A43F40053D3602F4BDB68F6
:10094C002E4A23F48053D3602C4BDB682B4A23F4C0
:10095C000063D360294BDB68284A23F48063D3609F
:10096C00264BDB68254A23F48073D360234BDB686A
:10097C00224A23F08003D360204BDB681F4A23F00C
:10098C004003D3601D4BDB681C4A43F02003D3604B
:10099C001A4BDB68194A43F01003D360174BDB6822
:1009AC00164A43F00803D360144BDB68134A43F038
:1009BC000403D360114BDB68104A23F00203D360AD
:1009CC000E4BDB680D4A23F00103D3600B4B002266
:1009DC001A610A4B1B69094A23F440531361074BF4
:1009EC0000225A61054B00229A612520FFF7EAFB91
:1009FC0000BF80BD001002400008014000380140DB
:100A0C0080B400AF134B1B6803F02003002B0ED0F7
:100A1C00104B5A68104B1B8D1946D2B20E4B0B441F
:100A2C001A750D4B1B8D01339AB20B4B1A85094B62
:100A3C001B6803F01003002B08D0064B5B68064BB9
:100A4C001A8D054B5A85044B00221A8500BFBD46F2
:100A5C0080BC7047003801406C00002080B400AFAF
:100A6C00134B1B6803F02003002B0ED0104B5A685D
:100A7C00104B1B8D1946D2B20E4B0B441A750D4BF5
:100A8C001B8D01339AB20B4B1A85094B1B6803F073
:100A9C001003002B08D0064B5B68064B1A8D054BD8
:100AAC005A85044B00221A8500BFBD4680BC704796
:100ABC00004400409800002080B487B000AFF8607C
:100ACC00B9603B601346FB800023FB8219E01A4A95
:100ADC003B68136005E0184B1B68002B01D1002309
:100AEC0024E0FB681B6803F08003002BF3D0BB6889
:100AFC005A1CBA601B781A46FB685A60FB8A013391
:100B0C00FB82FA8AFB889A42E1D30B4A3B6813605A
:100B1C0005E0094B1B68002B01D1002306E0FB68A4
:100B2C001B6803F04003002BF3D0012318461C373D
:100B3C00BD4680BC704700BF6800002080B400AF89
:100B4C0000BFBD4680BC70470C480D490D4A0023C0
:100B5C0002E0D458C4500433C4188C42F9D30A4A66
:100B6C000A4C002301E013600432A242FBD3FFF7CE
:100B7C00E5FF00F00FF8FFF7EBFA704700000020DC
:100B8C0040000020080C000840000020C400002099
:100B9C00FEE7000070B500260C4D0D4C641BA41034
:100BAC00A64209D100F01AF800260A4D0A4C641B23
:100BBC00A410A64205D170BD55F8043B98470136E8
:100BCC00EEE755F8043B98470136F2E7000C0008B5
:100BDC00000C0008000C0008040C0008F8B500BF5D
:100BEC00F8BC08BC9E467047F8B500BFF8BC08BC02
:040BFC009E4670475A
:040C000031010008B6
:040C04000D010008D6
:100C0800D09FD180D0B8D0B2D0B5D18220D09CD0DE
:100C1800B8D180210D0A000000000000000000008B
:100C280000000000000000000000000000000000BC
:100C380000000000000000000000000000000000AC
:0400000508000B558F
:00000001FF
